:100000000C945D000C9485000C9485000C94850084
:100010000C9485000C9485000C9485000C9485004C
:100020000C9485000C9485000C9485000C9485003C
:100030000C9485000C9485000C9485000C9485002C
:100040000C94DD070C9485000C94AB070C94850789
:100050000C9485000C9485000C9485000C9485000C
:100060000C9485000C9485000000000024002700FB
:100070002A0000000000250028002B0004040404CE
:100080000404040402020202020203030303030342
:10009000010204081020408001020408102001021F
:1000A00004081020000000080002010000030407FB
:1000B0000000000000000000270811241FBECFEF41
:1000C000D8E0DEBFCDBF11E0A0E0B1E0EEEEFBE195
:1000D00002C005900D92A634B107D9F724E0A6E43A
:1000E000B1E001C01D92AD38B207E1F710E0CDE5F7
:1000F000D0E004C02197FE010E94DB0DCC35D10772
:10010000C9F70E9468080C94F50D0C94000080E972
:1001100091E00895AF92BF92CF92DF92EF92FF925B
:100120000F931F93CF93DF936C017B018B01040F1F
:10013000151FEB015E01AE18BF08C017D10759F0BB
:100140006991D601ED91FC910190F081E02DC601FD
:100150000995892B79F7C501DF91CF911F910F91F7
:10016000FF90EF90DF90CF90BF90AF900895FC018B
:10017000538D448D252F30E0842F90E0821B930B0C
:10018000541710F0CF96089501970895FC01918DB2
:10019000828D981761F0A28DAE0FBF2FB11D5D96B5
:1001A0008C91928D9F5F9F73928F90E008958FEF57
:1001B0009FEF0895FC01918D828D981731F0828D0B
:1001C000E80FF11D858D90E008958FEF9FEF089562
:1001D000FC01918D228D892F90E0805C9F4F821BC6
:1001E00091098F739927089580EE93E00E94E800AB
:1001F00021E0892B09F420E0822F089580E090E02F
:10020000892B29F00E94F40081110C9400000895BC
:10021000FC01A48DA80FB92FB11DA35ABF4F2C917B
:10022000848D90E001968F739927848FA689B78972
:100230002C93A089B1898C91837080648C93938D69
:10024000848D981306C00288F389E02D80818F7D0C
:1002500080830895EF92FF920F931F93CF93DF93C4
:10026000EC0181E0888F9B8D8C8D98131AC0E889F2
:10027000F989808185FF15C09FB7F894EE89FF89C1
:100280006083E889F98980818370806480839FBF5F
:1002900081E090E0DF91CF911F910F91FF90EF905F
:1002A0000895F62E0B8D10E00F5F1F4F0F7311276F
:1002B000E02E8C8D8E110CC00FB607FCFACFE889AA
:1002C000F989808185FFF5CFCE010E940801F1CF29
:1002D000EB8DEC0FFD2FF11DE35AFF4FF0829FB71E
:1002E000F8940B8FEA89FB8980818062CFCFCF930E
:1002F000DF93EC01888D8823B9F0AA89BB89E8894E
:10030000F9898C9185FD03C0808186FD0DC00FB6F3
:1003100007FCF7CF8C9185FFF2CF808185FFEDCF71
:10032000CE010E940801E9CFDF91CF91089590E0BE
:10033000FC01EC55FF4F2491FC01E057FF4F349135
:10034000FC01E458FF4FE491EE23C9F0222339F079
:10035000233001F1A8F4213019F1223029F1F0E025
:10036000EE0FFF1FEE58FF4FA591B4918FB7F89491
:10037000EC91611126C030953E233C938FBF0895C8
:100380002730A9F02830C9F0243049F78091800047
:100390008F7D03C0809180008F7780938000DFCFB6
:1003A00084B58F7784BDDBCF84B58F7DFBCF809103
:1003B000B0008F778093B000D2CF8091B0008F7D56
:1003C000F9CF3E2BDACFCF93DF9390E0FC01E057DB
:1003D000FF4F249184589F4FFC0184918823D1F0D2
:1003E00090E0880F991FFC01E859FF4FA591B49147
:1003F000FC01EE58FF4FC591D49161110EC09FB71B
:10040000F8948C91E22FE0958E238C932881E2233F
:10041000E8839FBFDF91CF9108958FB7F894EC9157
:10042000E22BEC938FBFF6CF1F93CF93DF93182F60
:10043000EB0161E00E94E301209739F460E0812F35
:10044000DF91CF911F910C949701CF3FD10511F40B
:1004500061E0F5CFE12FF0E0EC55FF4FE491E330A0
:1004600031F140F4E130B1F0E230E1F0C038D105D3
:100470007CF7E4CFE73029F1E83059F1E430B1F707
:1004800080918000806280938000D0938B00C09325
:100490008A0004C084B5806884BDC7BDDF91CF9158
:1004A0001F91089584B5806284BDC8BDF7CF809147
:1004B0008000806880938000D0938900C09388007A
:1004C000EDCF8091B00080688093B000C093B300FE
:1004D000E5CF8091B00080628093B000C093B400FB
:1004E000DDCF3FB7F8948091490190914A01A091E6
:1004F0004B01B0914C0126B5A89B05C02F3F19F0C8
:100500000196A11DB11D3FBFBA2FA92F982F882793
:10051000BC01CD01620F711D811D911D42E0660F6E
:10052000771F881F991F4A95D1F708954F925F92C0
:100530006F927F929F92AF92BF92CF92DF92EF9293
:10054000FF920F931F93CF93DF9300D01F92CDB7ED
:10055000DEB7F82E8091800490918104A0918204EE
:10056000B0918304892B8A2B8B2BD9F00E947102C6
:100570000091DC031091DD032091DE033091DF0355
:10058000601B710B820B930B00918004109181040E
:1005900020918204309183046017710782079307CA
:1005A000C8F20E9471026093DC037093DD038093B4
:1005B000DE039093DF03E0918804F0918904309783
:1005C00059F04091840450918504609186047091A3
:1005D00087048F2D0995F82E0091DA031091DB0323
:1005E0004F2C512C712C612C0115110509F45EC0A2
:1005F000D8011C96EC901C9780917E0490917F040A
:100600008436910510F41C961C92D801ED91FC9152
:10061000A280B38019821A821B82FF2089F1F8011F
:100620003696D12CC12C2191222319F19280992048
:1006300001F130E050E040E02F5F3F4F4F4F5F4F00
:10064000C301B2010E946F0D9B01AC01892D90E0A6
:10065000B0E0A0E0BC01CD016F5F7F4F8F4F9F4F97
:100660000E946F0DA1E0B0E0AC0FBD1FAC0DBD1D31
:100670008C93BFEFCB1ADB0A83E0C816D10499F63E
:10068000D8011D964D915C911E9712966D917C91AB
:100690009E012F5F3F4FC801F5010995D8011C96B7
:1006A000EC921C9714960D911C919ECF8091D803CB
:1006B0009091D9039C012F5F3F4F3093D903209332
:1006C000D80349970CF445C08FB7F8942091D00314
:1006D0003091D1034091D2035091D3038FBFE09169
:1006E000D803F091D90388EE93E0E89FB001E99F29
:1006F000700DF89F700D1124072E000C880B990BBC
:10070000C090D403D090D503E090D603F090D703E7
:100710002C193D094E095F090E94930D30937F0407
:1007200020937E041092D9031092D8032FB7F89427
:100730008091D0039091D103A091D203B091D303C3
:100740002FBF8093D4039093D503A093D603B09387
:10075000D7030F900F900F90DF91CF911F910F91C2
:10076000FF90EF90DF90CF90BF90AF909F907F90E1
:100770006F905F904F9008958F929F92AF92BF922B
:10078000CF92DF92EF92FF924B015C010E947102C7
:100790006B017C010E9471026C197D098E099F0911
:1007A000683E734081059105A8F321E0821A910803
:1007B000A108B10888EEC80E83E0D81EE11CF11C28
:1007C00081149104A104B10429F7FF90EF90DF9008
:1007D000CF90BF90AF909F908F9008950F931F93ED
:1007E000CF93DF93209147012F5F322F37703093E3
:1007F000470120FF2BC020E831FD2064347009F050
:100800002062205FFC01EC01239600E011E064858A
:10081000662329F070E0C8010E947F0D6F5F618739
:10082000322F369F030E30E0311D1124311110C0DC
:100830001682662311F0615061873196EC17FD072F
:1008400031F7DF91CF911F910F91089520E0D4CF20
:1008500031503683EECF4F925F926F927F928F929C
:10086000AF92BF92CF92DF92EF920F931F93CF93ED
:10087000DF933C01EB010E947102F301278530896F
:10088000621B730B6A307105B0F3F894E881F9814B
:100890007BB170646BB16F7B6BB9C9848E812C2D79
:1008A000281B822F2E83BF844A805B801C850D8588
:1008B000DE841F5F0F5FD3949F813885AA84EB8409
:1008C0004081D20120E0C32F522F322F30814427A4
:1008D00088943111380F08F43FEF8195889410FD0A
:1008E000430F4795889411FD430F4795889412FD57
:1008F000430F4795889413FD430F4795889414FD43
:10090000430F4795889415FD430F4795889416FD2E
:10091000430F4795889417FD430F47958894232FDD
:100920001111242F8C0D422F002C7BB900C047FFE2
:100930006BB931812227889400C000C0002C6BB9AC
:100940003111390F00C0002C7BB900C046FF6BB9D4
:1009500008F43FEF9195889400C000C0002C6BB95B
:1009600000FD230F00C0002C7BB900C045FF6BB910
:100970002795889401FD230F00C000C0002C6BB99F
:100980002795889400C0002C7BB900C044FF6BB948
:1009900002FD230F2795889400C000C0002C6BB97E
:1009A00003FD230F00C0002C7BB900C043FF6BB9CF
:1009B0002795889404FD230F00C000C0002C6BB95C
:1009C0002795889400C0002C7BB900C042FF6BB90A
:1009D00005FD230F2795889400C000C0002C6BB93B
:1009E00006FD230F00C0002C7BB900C041FF6BB98E
:1009F0002795889407FD230F00C000C0002C6BB919
:100A00002795889400C0002C7BB900C040FF6BB9CB
:100A1000432F0111422F9A0D00C000C0002C6BB96A
:100A200000C000C0002C7BB900C047FF6BB9328109
:100A30002227889400C000C0002C6BB931113C0FF4
:100A400000C0002C7BB900C046FF6BB908F43FEF33
:100A5000EB0DF11D00C000C0002C6BB9D0FC230FC2
:100A600000C0002C7BB900C045FF6BB92795889466
:100A7000D1FC230F00C000C0002C6BB927958894CF
:100A800000C0002C7BB900C044FF6BB9D2FC230F1F
:100A90002795889400C000C0002C6BB9D3FC230FAD
:100AA00000C0002C7BB900C043FF6BB92795889428
:100AB000D4FC230F00C000C0002C6BB9279588948C
:100AC00000C0002C7BB900C042FF6BB9D5FC230FDE
:100AD0002795889400C000C0002C6BB9D6FC230F6A
:100AE00000C0002C7BB900C041FF6BB927958894EA
:100AF000D7FC230F00C000C0002C6BB92795889449
:100B000000C0002C7BB900C040FF6BB9432FD1104F
:100B1000422FC19500C000C0002C6BB9CE0D00C0A3
:100B200000C07BB900C047FF6BB930812227889491
:100B300000C000C0002C6BB93111380F00C0002C70
:100B40007BB900C046FF6BB908F43FEF81958894EC
:100B500000C000C0002C6BB910FD230F00C0002C9A
:100B60007BB900C045FF6BB92795889411FD230F11
:100B700000C000C0002C6BB92795889400C0002CE1
:100B80007BB900C044FF6BB912FD230F27958894F1
:100B900000C000C0002C6BB913FD230F00C0002C57
:100BA0007BB900C043FF6BB92795889414FD230FD0
:100BB00000C000C0002C6BB92795889400C0002CA1
:100BC0007BB900C042FF6BB915FD230F27958894B0
:100BD00000C000C0002C6BB916FD230F00C0002C14
:100BE0007BB900C041FF6BB92795889417FD230F8F
:100BF00000C000C0002C6BB92795889400C0002C61
:100C00007BB900C040FF6BB9432F1111422F8C0DEF
:100C100000C000C0002C6BB9119709F086CE20EE01
:100C200031E0D2010E94B50DDC01CB01F4E0B695B4
:100C3000A79597958795FA95D1F730E020E0B9010F
:100C4000EAE94E9E040C611D5E9E600D711D11242B
:100C5000650D711D860F971FA11DB11D893E43E0D3
:100C60009407A105B10508F434C0885E9340A1093A
:100C7000B10942E0B695A795979587954A95D1F722
:100C800047E0849F080E211D949F200D311D1124E3
:100C9000290F311D6091460170E0860F971F820F6A
:100CA000931F4091D0035091D1036091D203709172
:100CB000D303292F3327420F531F611D711D40930A
:100CC000D0035093D1036093D2037093D3038093E6
:100CD000460178940E947102F301708B6787DF915F
:100CE000CF911F910F91EF90DF90CF90BF90AF9079
:100CF0008F907F906F905F904F900895569A0895CF
:100D00000F931F93CF93DF93CDB7DEB762970FB6E4
:100D1000F894DEBF0FBECDBF8C01F901DC011C963B
:100D20008C917A8369835C834B835E834D8390814E
:100D30009D8791819E8792819F878130F1F4CE01BA
:100D400001960E94EE0383E0888B1A8A198AD801E3
:100D5000ED91FC910484F585E02DBE016F5F7F4F1E
:100D6000C801099562960FB6F894DEBF0FBECDBFDD
:100D7000DF91CF911F910F9108951C861B861A86D3
:100D8000198618861F82DFCF0F931F93CF93DF93AF
:100D9000CDB7DEB762970FB6F894DEBF0FBECDBFFA
:100DA0008C01F901DC011C968C917A8369835C8348
:100DB0004B835E834D8390819D8791819E87928135
:100DC0009F878130E9F4CE0101960E94EE03188AD4
:100DD0001A8A198AD801ED91FC910484F585E02DD9
:100DE000BE016F5F7F4FC801099562960FB6F894F8
:100DF000DEBF0FBECDBFDF91CF911F910F91089540
:100E00001C861B861A86198618861F82E0CF90E002
:100E100080E00895FC01858596850895CF93DF9342
:100E200000D000D000D0CDB7DEB7AB011C821D8250
:100E30001E82DC01ED91FC910190F081E02D198280
:100E40001A821B829E012F5F3F4FBE016C5F7F4F56
:100E5000099526960FB6F894DEBF0FBECDBFDF9181
:100E6000CF910895FC0101900020E9F73197AF017F
:100E7000481B590BBC0180EE93E00C948A008F92C2
:100E80009F92AF92BF920F931F93CF93DF93CDB7F3
:100E9000DEB7A1970FB6F894DEBF0FBECDBF19A283
:100EA000423008F44AE08E010F5D1F4F842E912CD2
:100EB000B12CA12CA50194010E94930DE62FB9013C
:100EC000CA01EA30F4F4E05DD801EE938D01232BE2
:100ED000242B252B79F790E080E0109719F0CD01B5
:100EE0000E943207A1960FB6F894DEBF0FBECDBFA9
:100EF000DF91CF911F910F91BF90AF909F908F90F6
:100F00000895E95CE1CF0E94F00D1F920F920FB699
:100F10000F9211242F933F934F935F936F937F937F
:100F20008F939F93AF93BF93EF93FF9380EE93E0E4
:100F30000E940801FF91EF91BF91AF919F918F9116
:100F40007F916F915F914F913F912F910F900FBEC5
:100F50000F901F9018951F920F920FB60F921124A9
:100F60002F938F939F93EF93FF93E091F003F09172
:100F7000F1038081E091F603F091F70382FD1BC03D
:100F800090818091F9038F5F8F732091FA0382170C
:100F900041F0E091F903F0E0E052FC4F958F80932F
:100FA000F903FF91EF919F918F912F910F900FBEB9
:100FB0000F901F9018958081F4CF1F920F920FB65B
:100FC0000F9211242F933F938F939F93AF93BF93CF
:100FD0008091D0039091D103A091D203B091D3031B
:100FE0003091480123E0230F2D3758F50196A11DBC
:100FF000B11D209348018093D0039093D103A09317
:10100000D203B093D3038091490190914A01A091FA
:101010004B01B0914C010196A11DB11D8093490176
:1010200090934A01A0934B01B0934C01BF91AF91B3
:101030009F918F913F912F910F900FBE0F901F9016
:10104000189526E8230F0296A11DB11DD2CFE0EE20
:10105000F3E01382128288EE93E0A0E0B0E0848394
:101060009583A683B78388E291E09183808385ECA2
:1010700090E09587848784EC90E09787868780EC62
:1010800090E0918B808B81EC90E0938B828B82EC53
:1010900090E0958B848B86EC90E0978B868B118EFD
:1010A000128E138E148EEDE7F4E08FEF80831282A0
:1010B0001182148613868FEF9FEFDC018783908760
:1010C000A187B287EAE8F4E01082118212820895C3
:1010D000789484B5826084BD84B5816084BD85B513
:1010E000826085BD85B5816085BD80916E0081601F
:1010F00080936E00109281008091810082608093C5
:1011000081008091810081608093810080918000C6
:101110008160809380008091B10084608093B100F1
:101120008091B00081608093B00080917A008460EB
:1011300080937A0080917A00826080937A00809117
:101140007A00816080937A0080917A008068809331
:101150007A001092C10061E08DE00E94E30160E03E
:101160008EE00E94E30161E088E00E94E30161E01B
:1011700089E00E94E30161E08AE00E94E30161E00E
:101180008BE00E94E30110926B0110926A011092B1
:101190006D0110926C0110926F0110926E01E0913E
:1011A000F003F091F10382E08083E091EC03F09191
:1011B000ED031082E091EE03F091EF038FEC80835A
:1011C0001092F803E091F403F091F50386E0808338
:1011D000E091F203F091F303808180618083E091DC
:1011E000F203F091F303808188608083E091F20341
:1011F000F091F303808180688083E091F203F091A5
:10120000F30380818F7D808380916001811145C0CF
:1012100010925201109251018FEF809355018093EB
:101220005601809357018093580180935901809310
:101230005A0181E080935B0110925D0110925C0184
:1012400010925401109253018091DA039091DB03C4
:10125000892B31F48FE491E09093DB038093DA03E0
:10126000E0914D01F0914E01309721F08FE491E033
:10127000958384838FE491E090934E0180934D0198
:1012800010925F0110925E0186E191E0909350010F
:1012900080934F0181E080936001569A88E791E046
:1012A000909352018093510188EC90E090935D01FE
:1012B00080935C018091800490918104A0918204CC
:1012C000B0918304843C29E09207A105B10520F484
:1012D00084EC99E0A0E0B0E08093800490938104D6
:1012E000A0938204B093830480E480937D04E8E7B4
:1012F000F1E0108211821282339633E0E03DF30771
:10130000C1F780E40E94960268EE73E080E090E00E
:101310000E94BC03C5E0D8E095E5392EB12C2BEA3C
:10132000A22E30E0832E30E0932E0FEF10E080E409
:10133000282EEBEBF3E08081828B8181838B82818D
:10134000848B339741E0E537F407A9F720927C00BE
:1013500080917A00806480937A0080917A0086FD83
:10136000FCCF8091780060917900762F682F072E4E
:10137000000C880B990B0E94480C6B017C01C092F9
:101380007401D0927501E0927601F092770120917C
:1013900070013091710140917201509173010E946E
:1013A000A60B20E030E040E05FE30E94FD0C60937C
:1013B000700170937101809372019093730120E02A
:1013C00030E040E05FE30E94FD0C9B01AC01C701EF
:1013D000B6010E94120C87FD0AC020E030E040E711
:1013E00051E4C701B6010E94120C87FF08C0109299
:1013F0007401109275011092760110927701A70185
:101400009601C701B6010E946A0D882309F47EC0C7
:1014100086E391E00E94320782E491E00E94320765
:10142000C0906C01D0906D01E0906E01F0906F0162
:1014300060916A0170916B0189E00E941402B6010B
:101440008AE00E941402B7018BE00E94140220E09F
:1014500030E040E252E46091740170917501809136
:101460007601909177010E94F80C18160CF018C1C3
:1014700061E088E00E949701809100019091010154
:101480008C9F90018D9F300D9C9F300D1124275E05
:10149000394C532F520F2C9FC0012D9F900D3C9F14
:1014A000900D1124875E994C909301018093000167
:1014B000392F380F832F90E090936B0180936A014E
:1014C00010936D0100936C01852F90E090936F0154
:1014D00080936E01932F990F990F990F292F432D08
:1014E000249F020E20E0211D1124822F232F20741F
:1014F000432F407237FD05C12111F1C0411198C041
:10150000982F9095382F892F90E096C026013701AB
:10151000E89477F82FEF3FEF4FE75FE7C301B201A1
:101520000E946A0D81110DC02FEF3FEF4FE75FE77B
:10153000C301B2010E94120C18161CF48AE391E058
:1015400069CF2FEF3FEF4FE75FE4C701B6010E947D
:10155000F80C18161CF48EE391E05CCF2FEF3FEFF0
:101560004FE75FECC701B6010E94120C87FDF3CF75
:1015700020E030E0A901C701B6010E94120C87FFEC
:1015800009C06DE280EE93E00E942A01F7FAF09420
:10159000F7F8F0942AE037ED43EA5BE3C701B601C0
:1015A0000E94A60B2B013C010E94170C6B017C01D1
:1015B0000E94460C9B01AC01C301B2010E94A50B25
:1015C0002B013C014AE0C701B6010E943F076EE2D1
:1015D00080EE93E00E942A0120E030E040E251E4F6
:1015E000C301B2010E94FD0C2B013C010E94170CAB
:1015F0006B01F12CE12C4AE0C701B6010E943F07C4
:10160000C701B6010E94460C9B01AC01C301B201A7
:101610000E94A50B20E030E040E251E40E94FD0C66
:101620000E94170C90E080E04AE00E943F07F4CE51
:1016300035E5380F90E08BEA5F3F09F421C02B2D90
:10164000552321F0559F212D09F02F5F222309F406
:1016500078C0882331F0482F429F040E40E0411D9E
:10166000842F332321F0329F030E30E0311D992364
:1016700031F0492F429F040E40E0411D942F112468
:1016800080938A0430938B0490938C04E8E7F1E014
:10169000808331839283339621E0EA38F207C1F7E1
:1016A00080917D040E9496026AE070E080E090E004
:1016B0000E94BC0380916801909169010A96909301
:1016C0006901809368018114910409F432CE0E946B
:1016D000F400882309F42BCE0E94000028CE41118B
:1016E0000BC0292F3AEA239F020E20E0211D11246E
:1016F0009A2D921B380F07CF382F3095982F80E006
:101700009BCF211112C041110CC0292F4AEA249FFE
:10171000020E20E0211D11243A2D321B95E5920F77
:10172000EECF982F909530E087CF411106C025E588
:10173000280F9A2D981B822FF6CF2AEA280F932D77
:10174000F9CF90E030E080E09BCF5058BB27AA272C
:101750000E94BD0B0C94BE0C0E94B00C38F00E948D
:10176000B70C20F039F49F3F19F426F40C94AD0C1B
:101770000EF4E095E7FB0C94A70CE92F0E94CF0C28
:1017800058F3BA17620773078407950720F079F4B6
:10179000A6F50C94F10C0EF4E0950B2EBA2FA02DAB
:1017A0000B01B90190010C01CA01A0011124FF270E
:1017B000591B99F0593F50F4503E68F11A16F04009
:1017C000A22F232F342F4427585FF3CF4695379508
:1017D0002795A795F0405395C9F77EF41F16BA0BCD
:1017E000620B730B840BBAF09150A1F0FF0FBB1F7B
:1017F000661F771F881FC2F70EC0BA0F621F731FC4
:10180000841F48F4879577956795B795F7959E3F20
:1018100008F0B0CF9395880F08F09927EE0F9795B1
:10182000879508950E94830C08F481E008950E9432
:10183000D70C88F09F5798F0B92F9927B751B0F07F
:10184000E1F0660F771F881F991F1AF0BA95C9F744
:1018500014C0B13091F00E94F10CB1E008950C94E5
:10186000F10C672F782F8827B85F39F0B93FCCF398
:10187000869577956795B395D9F73EF490958095C1
:10188000709561957F4F8F4F9F4F0895E89409C0E1
:1018900097FB3EF490958095709561957F4F8F4FA3
:1018A0009F4F9923A9F0F92F96E9BB279395F695B9
:1018B000879577956795B795F111F8CFFAF4BB0F37
:1018C00011F460FF1BC06F5F7F4F8F4F9F4F16C09B
:1018D000882311F096E911C0772321F09EE8872F25
:1018E000762F05C0662371F096E8862F70E060E0E1
:1018F0002AF09A95660F771F881FDAF7880F96955A
:10190000879597F90895990F0008550FAA0BE0E8FD
:10191000FEEF16161706E807F907C0F012161306B1
:10192000E407F50798F0621B730B840B950B39F4F1
:101930000A2661F0232B242B252B21F408950A2657
:1019400009F4A140A6958FEF811D811D089597F997
:101950009F6780E870E060E008959FEF80EC089555
:1019600000240A941616170618060906089500247E
:101970000A9412161306140605060895092E0394F8
:10198000000C11F4882352F0BB0F40F4BF2B11F46C
:1019900060FF04C06F5F7F4F8F4F9F4F089557FDCB
:1019A0009058440F551F59F05F3F71F04795880FCD
:1019B00097FB991F61F09F3F79F087950895121664
:1019C00013061406551FF2CF4695F1DF08C0161610
:1019D00017061806991FF1CF8695710561050894C1
:1019E0000895E894BB2766277727CB0197F90895D8
:1019F0000E94830C08F48FEF08950E94100D0C9440
:101A0000BE0C0E94B00C38F00E94B70C20F0952359
:101A100011F00C94A70C0C94AD0C11240C94F20C46
:101A20000E94CF0C70F3959FC1F3950F50E0551FA6
:101A3000629FF001729FBB27F00DB11D639FAA2723
:101A4000F00DB11DAA1F649F6627B00DA11D661F72
:101A5000829F2227B00DA11D621F739FB00DA11D93
:101A6000621F839FA00D611D221F749F3327A00D4D
:101A7000611D231F849F600D211D822F762F6A2FE9
:101A800011249F5750409AF0F1F088234AF0EE0F4E
:101A9000FF1FBB1F661F771F881F91505040A9F77B
:101AA0009E3F510580F00C94A70C0C94F20C5F3F04
:101AB000E4F3983ED4F3869577956795B795F795B7
:101AC000E7959F5FC1F7FE2B880F911D969587952F
:101AD00097F908950E94830C880B990B0895DB01F8
:101AE0008F939F930E94BC0DBF91AF91A29F800DD9
:101AF000911DA39F900DB29F900D1124089597FB07
:101B0000072E16F4009407D077FD09D00E94C70D68
:101B100007FC05D03EF4909581959F4F08957095F0
:101B200061957F4F0895A1E21A2EAA1BBB1BFD01F0
:101B30000DC0AA1FBB1FEE1FFF1FA217B307E407AC
:101B4000F50720F0A21BB30BE40BF50B661F771F04
:101B5000881F991F1A9469F76095709580959095E4
:101B60009B01AC01BD01CF0108950E94E10DB7FFBB
:101B70000895821B930B08950E94E10DA59F900D7F
:101B8000B49F900DA49F800D911D11240895AA1B50
:101B9000BB1B51E107C0AA1FBB1FA617B70710F058
:101BA000A61BB70B881F991F5A95A9F7809590958A
:101BB000BC01CD010895EE0FFF1F0590F491E02DBB
:101BC0000994A29FB001B39FC001A39F700D811D16
:101BD0001124911DB29F700D811D1124911D089536
:0E1BE00081E090E0F8940C94F50DF894FFCF9E
:101BEE003905000000008307830783070E070A07E5
:101BFE00070700000000C40680067E060E070A07CF
:101C0E0087002B04000000002A018A00B70077012C
:101C1E00E800C600DA006E616E00696E66006F76CF
:061C2E0066000D0A000033
:00000001FF
