:100000000C9453000C947B000C947B000C947B00AC
:100010000C947B000C947B000C947B000C947B0074
:100020000C947B000C947B000C947B000C947B0064
:100030000C947B000C947B000C947B000C947B0054
:100040000C9424070C947B000C94F2060C94CC06C0
:100050000C947B000C947B000C947B000C947B0034
:100060000C947B000C947B0000000000250028000D
:100070002B0000000000240027002A0004040404D0
:100080000404040402020202020203030303030342
:10009000010204081020408001020408102001021F
:1000A000040810206E0711241FBECFEFD8E0DEBF7A
:1000B000CDBF11E0A0E0B1E0E0E7FCE102C00590B7
:1000C0000D92AC34B107D9F724E0ACE4B1E001C043
:1000D0001D92AB39B207E1F710E0C3E5D0E004C0F0
:1000E0002197FE010E941C0EC235D107C9F70E945C
:1000F000AF070C94360E0C9400002091060130914D
:10010000070145E058E0249FC001259F900D349FD2
:10011000900D1124875E994C849F9001859F300D2E
:10012000949F300D1124275E394C309307012093A2
:100130000601E8EDF3E0230F30E0318320832FEF59
:1001400030E033832283890F90E095838483089580
:1001500080E991E00895AF92BF92CF92DF92EF9243
:10016000FF920F931F93CF93DF936C017B018B0161
:10017000040F151FEB015E01AE18BF08C017D107B1
:1001800059F06991D601ED91FC910190F081E02D3B
:10019000C6010995892B79F7C501DF91CF911F9190
:1001A0000F91FF90EF90DF90CF90BF90AF900895A8
:1001B000FC01538D448D252F30E0842F90E0821B6D
:1001C000930B541710F0CF96089501970895FC01F2
:1001D000918D828D981761F0A28DAE0FBF2FB11D4A
:1001E0005D968C91928D9F5F9F73928F90E00895A2
:1001F0008FEF9FEF0895FC01918D828D981731F05C
:10020000828DE80FF11D858D90E008958FEF9FEFAF
:100210000895FC01918D228D892F90E0805C9F4F85
:10022000821B91098F73992708958EEE93E00E94A7
:10023000090121E0892B09F420E0822F089580E054
:1002400090E0892B29F00E94150181110C94000087
:100250000895FC01A48DA80FB92FB11DA35ABF4F5B
:100260002C91848D90E001968F739927848FA689B5
:10027000B7892C93A089B1898C91837080648C9309
:10028000938D848D981306C00288F389E02D8081B8
:100290008F7D80830895EF92FF920F931F93CF93EA
:1002A000DF93EC0181E0888F9B8D8C8D98131AC0B1
:1002B000E889F989808185FF15C09FB7F894EE8998
:1002C000FF896083E889F9898081837080648083F5
:1002D0009FBF81E090E0DF91CF911F910F91FF9040
:1002E000EF900895F62E0B8D10E00F5F1F4F0F73E8
:1002F0001127E02E8C8D8E110CC00FB607FCFACFA3
:10030000E889F989808185FFF5CFCE010E94290116
:10031000F1CFEB8DEC0FFD2FF11DE35AFF4FF08273
:100320009FB7F8940B8FEA89FB8980818062CFCFD9
:10033000CF93DF93EC01888D8823B9F0AA89BB891C
:10034000E889F9898C9185FD03C0808186FD0DC007
:100350000FB607FCF7CF8C9185FFF2CF808185FF28
:10036000EDCFCE010E942901E9CFDF91CF91089511
:100370003FB7F89480914F0190915001A0915101A5
:10038000B091520126B5A89B05C02F3F19F00196E8
:10039000A11DB11D3FBFBA2FA92F982F8827BC01DF
:1003A000CD01620F711D811D911D42E0660F771F07
:1003B000881F991F4A95D1F708954F925F926F92C7
:1003C0007F929F92AF92BF92CF92DF92EF92FF9275
:1003D0000F931F93CF93DF9300D01F92CDB7DEB75B
:1003E000F82E80918E0490918F04A0919004B0918A
:1003F0009104892B8A2B8B2BD9F00E94B801009194
:10040000EA031091EB032091EC033091ED03601BA4
:10041000710B820B930B00918E0410918F0420912D
:100420009004309191046017710782079307C8F216
:100430000E94B8016093EA037093EB038093EC038E
:100440009093ED03E0919604F0919704309759F062
:10045000409192045091930460919404709195049A
:100460008F2D0995F82E0091E8031091E9034F2C88
:10047000512C712C612C0115110509F45EC0D801B5
:100480001C96EC901C9780918C0490918D0484367E
:10049000910510F41C961C92D801ED91FC91A2805C
:1004A000B38019821A821B82FF2089F1F8013696E7
:1004B000D12CC12C2191222319F19280992001F194
:1004C00030E050E040E02F5F3F4F4F4F5F4FC301A0
:1004D000B2010E94B00D9B01AC01892D90E0B0E00B
:1004E000A0E0BC01CD016F5F7F4F8F4F9F4F0E94F7
:1004F000B00DA1E0B0E0AC0FBD1FAC0DBD1D8C93E5
:10050000BFEFCB1ADB0A83E0C816D10499F6D801F5
:100510001D964D915C911E9712966D917C919E0156
:100520002F5F3F4FC801F5010995D8011C96EC9249
:100530001C9714960D911C919ECF8091E60390918B
:10054000E7039C012F5F3F4F3093E7032093E603BF
:1005500049970CF445C08FB7F8942091DE03309191
:10056000DF034091E0035091E1038FBFE091E60388
:10057000F091E70388EE93E0E89FB001E99F700DEA
:10058000F89F700D1124072E000C880B990BC0905A
:10059000E203D090E303E090E403F090E5032C192C
:1005A0003D094E095F090E94D40D30938D042093BC
:1005B0008C041092E7031092E6032FB7F894809111
:1005C000DE039091DF03A091E003B091E1032FBF20
:1005D0008093E2039093E303A093E403B093E503D5
:1005E0000F900F900F90DF91CF911F910F91FF907F
:1005F000EF90DF90CF90BF90AF909F907F906F90E3
:100600005F904F9008958F929F92AF92BF92CF923A
:10061000DF92EF92FF924B015C010E94B8016B01E7
:100620007C010E94B8016C197D098E099F09683E02
:10063000734081059105A8F321E0821A9108A10871
:10064000B10888EEC80E83E0D81EE11CF11C8114AD
:100650009104A104B10429F7FF90EF90DF90CF90AF
:10066000BF90AF909F908F9008950F931F93CF935B
:10067000DF9320914D012F5F322F377030934D0162
:1006800020FF2BC020E831FD2064347009F0206287
:10069000205FFC01EC01239600E011E064856623F5
:1006A00029F070E0C8010E94C00D6F5F6187322F92
:1006B000369F030E30E0311D1124311110C0168217
:1006C000662311F0615061873196EC17FD0731F711
:1006D000DF91CF911F910F91089520E0D4CF315039
:1006E0003683EECF4F925F926F927F928F92AF924E
:1006F000BF92CF92DF92EF920F931F93CF93DF932E
:100700003C01EB010E94B801F30127853089621B8F
:10071000730B6A307105B0F3F894E881F9817BB10D
:1007200070646BB16F7B6BB9C9848E812C2D281BD3
:10073000822F2E83BF844A805B801C850D85DE84DA
:100740001F5F0F5FD3949F813885AA84EB8440811B
:10075000D20120E0C32F522F322F308144278894BA
:100760003111380F08F43FEF8195889410FD430F45
:100770004795889411FD430F4795889412FD430FC8
:100780004795889413FD430F4795889414FD430FB4
:100790004795889415FD430F4795889416FD430FA0
:1007A0004795889417FD430F47958894232F11117F
:1007B000242F8C0D422F002C7BB900C047FF6BB952
:1007C00031812227889400C000C0002C6BB9311100
:1007D000390F00C0002C7BB900C046FF6BB908F48C
:1007E0003FEF9195889400C000C0002C6BB900FDCC
:1007F000230F00C0002C7BB900C045FF6BB92795C3
:10080000889401FD230F00C000C0002C6BB9279510
:10081000889400C0002C7BB900C044FF6BB902FD76
:10082000230F2795889400C000C0002C6BB903FDEE
:10083000230F00C0002C7BB900C043FF6BB9279584
:10084000889404FD230F00C000C0002C6BB92795CD
:10085000889400C0002C7BB900C042FF6BB905FD35
:10086000230F2795889400C000C0002C6BB906FDAB
:10087000230F00C0002C7BB900C041FF6BB9279546
:10088000889407FD230F00C000C0002C6BB927958A
:10089000889400C0002C7BB900C040FF6BB9432F87
:1008A0000111422F9A0D00C000C0002C6BB900C08E
:1008B00000C0002C7BB900C047FF6BB932812227F2
:1008C000889400C000C0002C6BB931113C0F00C0EF
:1008D000002C7BB900C046FF6BB908F43FEFEB0D6D
:1008E000F11D00C000C0002C6BB9D0FC230F00C06C
:1008F000002C7BB900C045FF6BB927958894D1FCCB
:10090000230F00C000C0002C6BB92795889400C04D
:10091000002C7BB900C044FF6BB9D2FC230F279594
:10092000889400C000C0002C6BB9D3FC230F00C01A
:10093000002C7BB900C043FF6BB927958894D4FC89
:10094000230F00C000C0002C6BB92795889400C00D
:10095000002C7BB900C042FF6BB9D5FC230F279553
:10096000889400C000C0002C6BB9D6FC230F00C0D7
:10097000002C7BB900C041FF6BB927958894D7FC48
:10098000230F00C000C0002C6BB92795889400C0CD
:10099000002C7BB900C040FF6BB9432FD110422F10
:1009A000C19500C000C0002C6BB9CE0D00C000C0C6
:1009B0007BB900C047FF6BB930812227889400C003
:1009C00000C0002C6BB93111380F00C0002C7BB96E
:1009D00000C046FF6BB908F43FEF8195889400C0D2
:1009E00000C0002C6BB910FD230F00C0002C7BB998
:1009F00000C045FF6BB92795889411FD230F00C0F7
:100A000000C0002C6BB92795889400C0002C7BB9DE
:100A100000C044FF6BB912FD230F2795889400C0D6
:100A200000C0002C6BB913FD230F00C0002C7BB954
:100A300000C043FF6BB92795889414FD230F00C0B5
:100A400000C0002C6BB92795889400C0002C7BB99E
:100A500000C042FF6BB915FD230F2795889400C095
:100A600000C0002C6BB916FD230F00C0002C7BB911
:100A700000C041FF6BB92795889417FD230F00C074
:100A800000C0002C6BB92795889400C0002C7BB95E
:100A900000C040FF6BB9432F1111422F8C0D00C0D5
:100AA00000C0002C6BB9119709F086CE20EE31E022
:100AB000D2010E94F60DDC01CB01F4E0B695A795BA
:100AC00097958795FA95D1F730E020E0B901EAE9EA
:100AD0004E9E040C611D5E9E600D711D1124650DFE
:100AE000711D860F971FA11DB11D893E43E094071C
:100AF000A105B10508F434C0885E9340A109B1098D
:100B000042E0B695A795979587954A95D1F747E026
:100B1000849F080E211D949F200D311D1124290F43
:100B2000311D60914C0170E0860F971F820F931F5B
:100B30004091DE035091DF036091E0037091E10387
:100B4000292F3327420F531F611D711D4093DE0370
:100B50005093DF036093E0037093E10380934C01B3
:100B600078940E94B801F301708B6787DF91CF9171
:100B70001F910F91EF90DF90CF90BF90AF908F902B
:100B80007F906F905F904F900895569A08950F93BD
:100B90001F93CF93DF93CDB7DEB762970FB6F8946C
:100BA000DEBF0FBECDBF8C01F901DC011C968C911C
:100BB0007A8369835C834B835E834D8390819D87B9
:100BC00091819E8792819F878130F1F4CE010196B9
:100BD0000E94350383E0888B1A8A198AD801ED9127
:100BE000FC910484F585E02DBE016F5F7F4FC80145
:100BF000099562960FB6F894DEBF0FBECDBFDF91A8
:100C0000CF911F910F9108951C861B861A86198615
:100C100018861F82DFCF0F931F93CF93DF93CDB73B
:100C2000DEB762970FB6F894DEBF0FBECDBF8C0162
:100C3000F901DC011C968C917A8369835C834B8378
:100C40005E834D8390819D8791819E8792819F874E
:100C50008130E9F4CE0101960E943503188A1A8A80
:100C6000198AD801ED91FC910484F585E02DBE012F
:100C70006F5F7F4FC801099562960FB6F894DEBF8B
:100C80000FBECDBFDF91CF911F910F9108951C86AC
:100C90001B861A86198618861F82E0CF90E080E0B6
:100CA0000895FC01858596850895CF93DF9300D044
:100CB00000D000D0CDB7DEB7AB011C821D821E82F2
:100CC000DC01ED91FC910190F081E02D19821A82F6
:100CD0001B829E012F5F3F4FBE016C5F7F4F0995C6
:100CE00026960FB6F894DEBF0FBECDBFDF91CF9131
:100CF0000895FC0101900020E9F73197AF01481BEE
:100D0000590BBC018EEE93E00C94AB008F929F9236
:100D1000AF92BF920F931F93CF93DF93CDB7DEB700
:100D2000A1970FB6F894DEBF0FBECDBF19A2423017
:100D300008F44AE08E010F5D1F4F842E912CB12CD8
:100D4000A12CA50194010E94D40DE62FB901CA017E
:100D5000EA30F4F4E05DD801EE938D01232B242BCF
:100D6000252B79F790E080E0109719F0CD010E94D3
:100D70007906A1960FB6F894DEBF0FBECDBFDF9106
:100D8000CF911F910F91BF90AF909F908F9008953A
:100D9000E95CE1CF0E94310E1F920F920FB60F92C5
:100DA00011242F933F934F935F936F937F938F9370
:100DB0009F93AF93BF93EF93FF938EEE93E00E94C8
:100DC0002901FF91EF91BF91AF919F918F917F91F9
:100DD0006F915F914F913F912F910F900FBE0F90A8
:100DE0001F9018951F920F920FB60F9211242F93F8
:100DF0008F939F93EF93FF93E091FE03F091FF0396
:100E00008081E0910404F091050482FD1BC0908173
:100E1000809107048F5F8F7320910804821741F03F
:100E2000E0910704F0E0E251FC4F958F80930704B6
:100E3000FF91EF919F918F912F910F900FBE0F9087
:100E40001F9018958081F4CF1F920F920FB60F92CA
:100E500011242F933F938F939F93AF93BF938091D0
:100E6000DE039091DF03A091E003B091E1033091A4
:100E70004E0123E0230F2D3758F50196A11DB11D1A
:100E800020934E018093DE039093DF03A093E00351
:100E9000B093E10380914F0190915001A0915101D5
:100EA000B09152010196A11DB11D80934F01909305
:100EB0005001A0935101B0935201BF91AF919F9106
:100EC0008F913F912F910F900FBE0F901F9018950B
:100ED00026E8230F0296A11DB11DD2CFEEEEF3E05E
:100EE0001382128288EE93E0A0E0B0E084839583C1
:100EF000A683B7838EE291E09183808385EC90E0B6
:100F00009587848784EC90E09787868780EC90E0D3
:100F1000918B808B81EC90E0938B828B82EC90E0C4
:100F2000958B848B86EC90E0978B868B118E128E3E
:100F3000138E148EEBE8F4E08FEF8083128211821F
:100F4000148613868FEF9FEFDC0187839087A1873C
:100F5000B287E8E9F4E01082118212820895789451
:100F600084B5826084BD84B5816084BD85B58260AE
:100F700085BD85B5816085BD80916E00816080935F
:100F80006E001092810080918100826080938100C8
:100F900080918100816080938100809180008160D8
:100FA000809380008091B10084608093B100809133
:100FB000B00081608093B00080917A00846080935B
:100FC0007A0080917A00826080937A0080917A0022
:100FD000816080937A0080917A00806880937A00A3
:100FE0001092C100E091FE03F091FF0382E0808344
:100FF000E091FA03F091FB031082E091FC03F09181
:10100000FD038FEC808310920604E0910204F091BE
:10101000030486E08083E0910004F0910104808164
:1010200080618083E0910004F091010480818860F8
:101030008083E0910004F0910104808180688083C6
:10104000E0910004F091010480818F7D8083EEE9BE
:10105000F0E02491EAE8F0E084918823C1F090E088
:10106000880F991FFC01EE58FF4FC591D491FC01E8
:10107000E859FF4FA591B4919FB7F8948881E22F6A
:10108000E0958E2388838C91E823EC939FBF809119
:101090006601811145C010925801109257018FEFDF
:1010A00080935B0180935C0180935D0180935E017E
:1010B00080935F018093600181E0809361011092D1
:1010C00063011092620110925A01109259018091AD
:1010D000E8039091E903892B31F485E591E0909341
:1010E000E9038093E803E0915301F09154013097B4
:1010F00021F085E591E09583848385E591E09093E7
:1011000054018093530110926501109264018CE1A7
:1011100091E0909356018093550181E080936601A0
:10112000569A80E891E0909358018093570188EC9B
:1011300090E0909363018093620180918E0490917E
:101140008F04A0919004B0919104843C29E092070F
:10115000A105B10520F484EC99E0A0E0B0E0809313
:101160008E0490938F04A0939004B0939104809187
:10117000000180938B041092D9031092D80310922F
:10118000DB031092DA031092DD031092DC03E0E837
:10119000F1E0108211821282339633E0E83DF307CA
:1011A000C1F70E94DD0168E873E180E090E00E94F1
:1011B000030380E4282E95E5392EC0E0DBEA00E049
:1011C00010E0E3ECF3E08081828B8181838B82816C
:1011D000848B339741E0ED37F407A9F720927C0028
:1011E00080917A00806480937A0080917A0086FDF5
:1011F000FCCF8091780060917900762F682F072EC0
:10120000000C880B990B0E94890C6B017C014B012F
:101210005C01C0927C01D0927D01E0927E01F0924F
:101220007F01AC019B010E94AB0D882309F4E4C04F
:101230008CE391E00E94790688E491E00E947906AF
:101240008090780190907901A0907A01B0907B0114
:10125000C0907C01D0907D01E0907E01F0907F01F4
:1012600020E030E040E05FE3C501B4010E943E0DA4
:10127000A70196010E94390D181654F020E030E0C5
:1012800048EC51E4C701B6010E94DA0B87FF48C160
:1012900010927C0110927D0110927E0110927F01CC
:1012A000C0907C01D0907D01E0907E01F0907F01A4
:1012B00020910201309103014091040150910501F8
:1012C000C701B6010E94390D181644F4C0920201FC
:1012D000D0920301E0920401F092050120E030E099
:1012E00040E252E4C701B6010E94390D18160CF015
:1012F0008FC140907401509075016090760170909C
:101300007701A3019201C701B6010E946D0B4B0149
:101310005C01C0907801D0907901E0907A01F09062
:101320007B01A3019201C701B6010E946D0B2B0145
:101330003C01AC019B01C501B4010E94390D181696
:101340000CF066C120E030E0A901C301B2010E94A7
:10135000390D18160CF05CC12091700130917101AB
:101360004091720150917301C501B4010E946E0B4E
:1013700020E030E040E05FE30E943E0D60937001AA
:10138000709371018093720190937301A70196018C
:101390000E94DF0B20E030E04FE753E40E943E0D57
:1013A0000E94510C609300017093010160938B04C3
:1013B0000E947D003091D8036091DC034091DA03F4
:1013C000932F990F990F990F292F532D259F020EB7
:1013D00020E0211D1124822F532F5072232F2074BF
:1013E00037FD53C121113FC15111AFC0982F9095C6
:1013F000382F892F90E0ADC026013701E89477F8A7
:101400002FEF3FEF4FE75FE7C301B2010E94AB0D43
:1014100081110DC02FEF3FEF4FE75FE7C301B2012E
:101420000E94DA0B18161CF480E491E003CF2FEF32
:101430003FEF4FE75FE4C701B6010E94390D181670
:101440001CF484E491E0F6CE2FEF3FEF4FE75FEC22
:10145000C701B6010E94DA0B87FDF3CF20E030E030
:10146000A901C701B6010E94DA0B87FF0BC06DE22C
:101470008EEE93E00E944B0146015701B7FAB094FB
:10148000B7F8B0942AE037ED43EA5BE3C501B40155
:101490000E946E0B4B015C010E94580C6B017C0199
:1014A0000E94870C9B01AC01C501B4010E946D0B29
:1014B0004B015C014AE0C701B6010E9486066EE25C
:1014C0008EEE93E00E944B0120E030E040E251E4D8
:1014D000C501B4010E943E0D4B015C010E94580CF5
:1014E0006B01F12CE12C4AE0C701B6010E9486068F
:1014F000C701B6010E94870C9B01AC01C501B40174
:101500000E946D0B20E030E040E251E40E943E0D6D
:101510000E94580C90E080E04AE00E9486068CCE43
:10152000A7019601C501B4010E946E0B20E030E0D6
:1015300040E05FE30E943E0D609378017093790173
:1015400080937A0190937B01ABCE35E5380F90E024
:101550008BEA4F3F09F424C0442309F4B6C0882322
:1015600031F0282F249F020E20E0211D822F3323EB
:1015700021F0349F030E30E0311D992331F0592FB3
:10158000549F050E50E0511D952F1124242F2095B6
:10159000229F020E20E0211D1124820F320F920F94
:1015A0006F3F09F421C02C2F662321F0669F212D67
:1015B00009F02F5F222309F48CC0882331F0482FD3
:1015C000429F040E40E0411D842F332321F0329FBF
:1015D000030E30E0311D992331F0592F529F050E33
:1015E00050E0511D952F1124809398043093990455
:1015F00090939A04E0E8F1E08083318392833396FC
:1016000021E0E239F207C1F780918B040E94DD01ED
:101610006AE070E080E090E00E94030380916E0138
:1016200090916F010A9690936F0180936E01809163
:101630007C0190917D01A0917E01B0917F0180930A
:10164000740190937501A0937601B0937701011511
:10165000110509F4B6CD0E941501882309F4B1CD16
:101660000E940000AECD51110BC0292F3AEA239FF2
:10167000020E20E0211D11249D2F921B380FB9CEA0
:10168000382F3095982F80E064CF211112C051116E
:101690000CC0292F5AEA259F020E20E0211D11249B
:1016A0003D2F321B95E5920FEECF982F909530E0AD
:1016B00050CF511106C025E5280F9D2F981B822F72
:1016C000F6CF2AEA280F932DF9CF9FEF3FEF8FEF48
:1016D00067CF90E030E080E087CF5058BB27AA2743
:1016E0000E94850B0C94FF0C0E94F10C38F00E94B4
:1016F000F80C20F039F49F3F19F426F40C94EE0C0A
:101700000EF4E095E7FB0C94E80CE92F0E94100D15
:1017100058F3BA17620773078407950720F079F426
:10172000A6F50C94320D0EF4E0950B2EBA2FA02DD9
:101730000B01B90190010C01CA01A0011124FF277E
:10174000591B99F0593F50F4503E68F11A16F04079
:10175000A22F232F342F4427585FF3CF4695379578
:101760002795A795F0405395C9F77EF41F16BA0B3D
:10177000620B730B840BBAF09150A1F0FF0FBB1FEB
:10178000661F771F881FC2F70EC0BA0F621F731F34
:10179000841F48F4879577956795B795F7959E3F91
:1017A00008F0B0CF9395880F08F09927EE0F979522
:1017B000879508950E94C40C08F481E008950E9462
:1017C000F30B0C94FF0C0E94F80C58F00E94F10CE3
:1017D00040F029F45F3F29F00C94E80C51110C946F
:1017E000330D0C94EE0C0E94100D68F39923B1F3A5
:1017F000552391F3951B550BBB27AA276217730737
:10180000840738F09F5F5F4F220F331F441FAA1FCA
:10181000A9F335D00E2E3AF0E0E832D09150504086
:10182000E695001CCAF72BD0FE2F29D0660F771F34
:10183000881FBB1F261737074807AB07B0E809F01A
:10184000BB0B802DBF01FF2793585F4F3AF09E3F9F
:10185000510578F00C94E80C0C94330D5F3FE4F3E1
:10186000983ED4F3869577956795B795F7959F5FE2
:10187000C9F7880F911D9695879597F90895E1E02E
:10188000660F771F881FBB1F621773078407BA078D
:1018900020F0621B730B840BBA0BEE1F88F7E095E8
:1018A00008950E94580C6894B1110C94330D08955A
:1018B0000E94180D88F09F5798F0B92F9927B751BB
:1018C000B0F0E1F0660F771F881F991F1AF0BA95E4
:1018D000C9F714C0B13091F00E94320DB1E0089503
:1018E0000C94320D672F782F8827B85F39F0B93FF5
:1018F000CCF3869577956795B395D9F73EF4909597
:101900008095709561957F4F8F4F9F4F0895E89414
:1019100009C097FB3EF490958095709561957F4F37
:101920008F4F9F4F9923A9F0F92F96E9BB279395E5
:10193000F695879577956795B795F111F8CFFAF4F5
:10194000BB0F11F460FF1BC06F5F7F4F8F4F9F4F26
:1019500016C0882311F096E911C0772321F09EE884
:10196000872F762F05C0662371F096E8862F70E0EA
:1019700060E02AF09A95660F771F881FDAF7880FC4
:101980009695879597F90895990F0008550FAA0B1A
:10199000E0E8FEEF16161706E807F907C0F0121682
:1019A0001306E407F50798F0621B730B840B950B85
:1019B00039F40A2661F0232B242B252B21F40895DA
:1019C0000A2609F4A140A6958FEF811D811D089577
:1019D00097F99F6780E870E060E008959FEF80ECE2
:1019E000089500240A941616170618060906089585
:1019F00000240A9412161306140605060895092EEB
:101A00000394000C11F4882352F0BB0F40F4BF2B59
:101A100011F460FF04C06F5F7F4F8F4F9F4F089599
:101A200057FD9058440F551F59F05F3F71F047958F
:101A3000880F97FB991F61F09F3F79F08795089574
:101A4000121613061406551FF2CF4695F1DF08C093
:101A5000161617061806991FF1CF869571056105B0
:101A600008940895E894BB2766277727CB0197F958
:101A700008950E94C40C08F48FEF08950E94510D40
:101A80000C94FF0C0E94F10C38F00E94F80C20F02E
:101A9000952311F00C94E80C0C94EE0C11240C948A
:101AA000330D0E94100D70F3959FC1F3950F50E018
:101AB000551F629FF001729FBB27F00DB11D639F00
:101AC000AA27F00DB11DAA1F649F6627B00DA11DA6
:101AD000661F829F2227B00DA11D621F739FB00D4C
:101AE000A11D621F839FA00D611D221F749F3327BC
:101AF000A00D611D231F849F600D211D822F762F55
:101B00006A2F11249F5750409AF0F1F088234AF031
:101B1000EE0FFF1FBB1F661F771F881F915050409D
:101B2000A9F79E3F510580F00C94E80C0C94330DFE
:101B30005F3FE4F3983ED4F3869577956795B79524
:101B4000F795E7959F5FC1F7FE2B880F911D96953E
:101B5000879597F908950E94C40C880B990B0895F6
:101B6000DB018F939F930E94FD0DBF91AF91A29FC8
:101B7000800D911DA39F900DB29F900D112408958B
:101B800097FB072E16F4009407D077FD09D00E942A
:101B9000080E07FC05D03EF4909581959F4F08955F
:101BA000709561957F4F0895A1E21A2EAA1BBB1B69
:101BB000FD010DC0AA1FBB1FEE1FFF1FA217B30719
:101BC000E407F50720F0A21BB30BE40BF50B661F2F
:101BD000771F881F991F1A9469F7609570958095F3
:101BE00090959B01AC01BD01CF0108950E94220E8A
:101BF000B7FF0895821B930B08950E94220EA59FA4
:101C0000900DB49F900DA49F800D911D11240895F7
:101C1000AA1BBB1B51E107C0AA1FBB1FA617B70712
:101C200010F0A61BB70B881F991F5A95A9F780952E
:101C30009095BC01CD010895EE0FFF1F0590F49122
:101C4000E02D0994A29FB001B39FC001A39F700D26
:101C5000811D1124911DB29F700D811D1124911DB4
:101C6000089581E090E0F8940C94360EF894FFCF3C
:101C7000400000007041390500000000CA06CA0695
:101C8000CA06550651064E06000000000B06C705A1
:101C9000C50555065106A8007203000000004B015F
:101CA000AB00D80098010901E700FB006E616E00EF
:0C1CB000696E66006F7666000D0A000089
:00000001FF
