:100000000C9462000C948A000C948A000C948A0070
:100010000C948A000C948A000C948A000C948A0038
:100020000C948A000C948A000C948A000C948A0028
:100030000C948A000C948A000C948A000C948A0018
:100040000C945B070C948A000C9429070C9403070A
:100050000C948A000C948A000C948A000C948A00F8
:100060000C948A000C948A000000000023002600F3
:10007000290000000008000201000003040700003E
:1000800000000000000000000000250028002B00F8
:1000900000000000240027002A00040404040404D3
:1000A0000404020202020202030303030303010227
:1000B00004081020408001020408102001020408F6
:1000C0001020A50711241FBECFEFD8E0DEBFCDBFA3
:1000D00011E0A0E0B1E0ECE1FEE102C005900D927C
:1000E000AC34B107D9F724E0ACE4B1E001C01D9213
:1000F000AE3CB207E1F710E0C2E6D0E004C02197C1
:10010000FE010E94F20EC136D107C9F70E94E60730
:100110000C940C0F0C940000209106013091070103
:1001200045E058E0249FC001259F900D349F900D1D
:100130001124875E994C849F9001859F300D949F78
:10014000300D1124275E394C3093070120930601AE
:10015000EBE0F4E0230F30E0318320832FEF30E039
:1001600033832283890F90E0958384830895CF930E
:10017000DF9390E0FC01E255FF4F249186569F4F9C
:10018000FC0184918823C1F090E0880F991FFC0145
:10019000E057FF4FC591D491FC01EA57FF4FA5915D
:1001A000B4919FB7F8948881E22FE0958E238883DD
:1001B0008C91E823EC939FBFDF91CF91089580E964
:1001C00091E00895AF92BF92CF92DF92EF92FF92AB
:1001D0000F931F93CF93DF936C017B018B01040F6F
:1001E000151FEB015E01AE18BF08C017D10759F00B
:1001F0006991D601ED91FC910190F081E02DC6014D
:100200000995892B79F7C501DF91CF911F910F9146
:10021000FF90EF90DF90CF90BF90AF900895FC01DA
:10022000538D448D252F30E0842F90E0821B930B5B
:10023000541710F0CF96089501970895FC01918D01
:10024000828D981761F0A28DAE0FBF2FB11D5D9604
:100250008C91928D9F5F9F73928F90E008958FEFA6
:100260009FEF0895FC01918D828D981731F0828D5A
:10027000E80FF11D858D90E008958FEF9FEF0895B1
:10028000FC01918D228D892F90E0805C9F4F821B15
:1002900091098F739927089581E294E00E944001AB
:1002A00021E0892B09F420E0822F089580E090E07E
:1002B000892B29F00E944C0181110C9400000895B3
:1002C000FC01A48DA80FB92FB11DA35ABF4F2C91CB
:1002D000848D90E001968F739927848FA689B789C2
:1002E0002C93A089B1898C91837080648C93938DB9
:1002F000848D981306C00288F389E02D80818F7D5C
:1003000080830895EF92FF920F931F93CF93DF9313
:10031000EC0181E0888F9B8D8C8D98131AC0E88941
:10032000F989808185FF15C09FB7F894EE89FF8910
:100330006083E889F98980818370806480839FBFAE
:1003400081E090E0DF91CF911F910F91FF90EF90AE
:100350000895F62E0B8D10E00F5F1F4F0F731127BE
:10036000E02E8C8D8E110CC00FB607FCFACFE889F9
:10037000F989808185FFF5CFCE010E946001F1CF20
:10038000EB8DEC0FFD2FF11DE35AFF4FF0829FB76D
:10039000F8940B8FEA89FB8980818062CFCFCF935D
:1003A000DF93EC01888D8823B9F0AA89BB89E8899D
:1003B000F9898C9185FD03C0808186FD0DC00FB643
:1003C00007FCF7CF8C9185FFF2CF808185FFEDCFC1
:1003D000CE010E946001E9CFDF91CF9108953FB730
:1003E000F89480914F0190915001A0915101B091EA
:1003F000520126B5A89B05C02F3F19F00196A11DFB
:10040000B11D3FBFBA2FA92F982F8827BC01CD015E
:10041000620F711D811D911D42E0660F771F881FBD
:10042000991F4A95D1F708954F925F926F927F92EC
:100430009F92AF92BF92CF92DF92EF92FF920F9373
:100440001F93CF93DF9300D01F92CDB7DEB7F82E66
:100450008091C1049091C204A091C304B091C404DE
:10046000892B8A2B8B2BD9F00E94EF0100911D0460
:1004700010911E0420911F0430912004601B710B09
:10048000820B930B0091C1041091C2042091C3040C
:100490003091C4046017710782079307C8F20E9465
:1004A000EF0160931D0470931E0480931F049093CA
:1004B0002004E091C904F091CA04309759F04091AA
:1004C000C5045091C6046091C7047091C8048F2D73
:1004D0000995F82E00911B0410911C044F2C512CEF
:1004E000712C612C0115110509F45EC0D8011C9610
:1004F000EC901C978091BF049091C00484369105C4
:1005000010F41C961C92D801ED91FC91A280B3804E
:1005100019821A821B82FF2089F1F8013696D12CAC
:10052000C12C2191222319F19280992001F130E010
:1005300050E040E02F5F3F4F4F4F5F4FC301B2018C
:100540000E94860E9B01AC01892D90E0B0E0A0E0F6
:10055000BC01CD016F5F7F4F8F4F9F4F0E94860E72
:10056000A1E0B0E0AC0FBD1FAC0DBD1D8C93BFEF83
:10057000CB1ADB0A83E0C816D10499F6D8011D9680
:100580004D915C911E9712966D917C919E012F5F0B
:100590003F4FC801F5010995D8011C96EC921C97B4
:1005A00014960D911C919ECF8091190490911A047C
:1005B0009C012F5F3F4F30931A04209319044997F1
:1005C0000CF445C08FB7F8942091110430911204B7
:1005D00040911304509114048FBFE0911904F091DD
:1005E0001A0488EE93E0E89FB001E99F700DF89F30
:1005F000700D1124072E000C880B990BC090150468
:10060000D0901604E0901704F09018042C193D09BE
:100610004E095F090E94AA0E3093C0042093BF04C4
:1006200010921A04109219042FB7F89480911104B3
:1006300090911204A0911304B09114042FBF8093E1
:10064000150490931604A0931704B09318040F9008
:100650000F900F90DF91CF911F910F91FF90EF902E
:10066000DF90CF90BF90AF909F907F906F905F9002
:100670004F9008958F929F92AF92BF92CF92DF9248
:10068000EF92FF924B015C010E94EF016B017C0134
:100690000E94EF016C197D098E099F09683E734025
:1006A00081059105A8F321E0821A9108A108B108FB
:1006B00088EEC80E83E0D81EE11CF11C8114910461
:1006C000A104B10429F7FF90EF90DF90CF90BF9085
:1006D000AF909F908F9008950F931F93CF93DF93C8
:1006E00020914D012F5F322F377030934D0120FF45
:1006F0002BC020E831FD2064347009F02062205FB7
:10070000FC01EC01239600E011E06485662329F0EA
:1007100070E0C8010E94960E6F5F6187322F369F8E
:10072000030E30E0311D1124311110C016826623F2
:1007300011F0615061873196EC17FD0731F7DF91B9
:10074000CF911F910F91089520E0D4CF315036837F
:10075000EECF4F925F926F927F928F92AF92BF9245
:10076000CF92DF92EF920F931F93CF93DF933C01D1
:10077000EB010E94EF01F30127853089621B730BA7
:100780006A307105B0F3F894E881F9817BB1706447
:100790006BB16F7B6BB9C9848E812C2D281B822F86
:1007A0002E83BF844A805B801C850D85DE841F5F9D
:1007B0000F5FD3949F813885AA84EB844081D20156
:1007C00020E0C32F522F322F3081442788943111DB
:1007D000380F08F43FEF8195889410FD430F47953B
:1007E000889411FD430F4795889412FD430F479558
:1007F000889413FD430F4795889414FD430F479544
:10080000889415FD430F4795889416FD430F47952F
:10081000889417FD430F47958894232F1111242F97
:100820008C0D422F002C7BB900C047FF6BB9318182
:100830002227889400C000C0002C6BB93111390FF9
:1008400000C0002C7BB900C046FF6BB908F43FEF35
:100850009195889400C000C0002C6BB900FD230F57
:1008600000C0002C7BB900C045FF6BB92795889468
:1008700001FD230F00C000C0002C6BB927958894A0
:1008800000C0002C7BB900C044FF6BB902FD230FF0
:100890002795889400C000C0002C6BB903FD230F7E
:1008A00000C0002C7BB900C043FF6BB9279588942A
:1008B00004FD230F00C000C0002C6BB9279588945D
:1008C00000C0002C7BB900C042FF6BB905FD230FAF
:1008D0002795889400C000C0002C6BB906FD230F3B
:1008E00000C0002C7BB900C041FF6BB927958894EC
:1008F00007FD230F00C000C0002C6BB9279588941A
:1009000000C0002C7BB900C040FF6BB9432F011120
:10091000422F9A0D00C000C0002C6BB900C000C06F
:10092000002C7BB900C047FF6BB932812227889425
:1009300000C000C0002C6BB931113C0F00C0002C6E
:100940007BB900C046FF6BB908F43FEFEB0DF11D1A
:1009500000C000C0002C6BB9D0FC230F00C0002CDD
:100960007BB900C045FF6BB927958894D1FC230F54
:1009700000C000C0002C6BB92795889400C0002CE3
:100980007BB900C044FF6BB9D2FC230F2795889434
:1009900000C000C0002C6BB9D3FC230F00C0002C9A
:1009A0007BB900C043FF6BB927958894D4FC230F13
:1009B00000C000C0002C6BB92795889400C0002CA3
:1009C0007BB900C042FF6BB9D5FC230F27958894F3
:1009D00000C000C0002C6BB9D6FC230F00C0002C57
:1009E0007BB900C041FF6BB927958894D7FC230FD2
:1009F00000C000C0002C6BB92795889400C0002C63
:100A00007BB900C040FF6BB9432FD110422FC19575
:100A100000C000C0002C6BB9CE0D00C000C07BB977
:100A200000C047FF6BB930812227889400C000C006
:100A3000002C6BB93111380F00C0002C7BB900C0FD
:100A400046FF6BB908F43FEF8195889400C000C061
:100A5000002C6BB910FD230F00C0002C7BB900C027
:100A600045FF6BB92795889411FD230F00C000C086
:100A7000002C6BB92795889400C0002C7BB900C06E
:100A800044FF6BB912FD230F2795889400C000C066
:100A9000002C6BB913FD230F00C0002C7BB900C0E4
:100AA00043FF6BB92795889414FD230F00C000C045
:100AB000002C6BB92795889400C0002C7BB900C02E
:100AC00042FF6BB915FD230F2795889400C000C025
:100AD000002C6BB916FD230F00C0002C7BB900C0A1
:100AE00041FF6BB92795889417FD230F00C000C004
:100AF000002C6BB92795889400C0002C7BB900C0EE
:100B000040FF6BB9432F1111422F8C0D00C000C064
:100B1000002C6BB9119709F086CE20EE31E0D2019E
:100B20000E94CC0EDC01CB01F4E0B695A795979519
:100B30008795FA95D1F730E020E0B901EAE94E9EB9
:100B4000040C611D5E9E600D711D1124650D711DEB
:100B5000860F971FA11DB11D893E43E09407A10593
:100B6000B10508F434C0885E9340A109B10942E0A0
:100B7000B695A795979587954A95D1F747E0849FB5
:100B8000080E211D949F200D311D1124290F311DA8
:100B900060914C0170E0860F971F820F931F409168
:100BA0001104509112046091130470911404292FC0
:100BB0003327420F531F611D711D40931104509341
:100BC0001204609313047093140480934C0178947E
:100BD0000E94EF01F301708B6787DF91CF911F9126
:100BE0000F91EF90DF90CF90BF90AF908F907F905C
:100BF0006F905F904F900895569A08950F931F93AA
:100C0000CF93DF93CDB7DEB762970FB6F894DEBF10
:100C10000FBECDBF8C01F901DC011C968C917A834B
:100C200069835C834B835E834D8390819D87918133
:100C30009E8792819F878130F1F4CE0101960E94B8
:100C40006C0383E0888B1A8A198AD801ED91FC9194
:100C50000484F585E02DBE016F5F7F4FC8010995C3
:100C600062960FB6F894DEBF0FBECDBFDF91CF9175
:100C70001F910F9108951C861B861A861986188667
:100C80001F82DFCF0F931F93CF93DF93CDB7DEB7D4
:100C900062970FB6F894DEBF0FBECDBF8C01F9018D
:100CA000DC011C968C917A8369835C834B835E8321
:100CB0004D8390819D8791819E8792819F8781300E
:100CC000E9F4CE0101960E946C03188A1A8A198AE7
:100CD000D801ED91FC910484F585E02DBE016F5F94
:100CE0007F4FC801099562960FB6F894DEBF0FBE1C
:100CF000CDBFDF91CF911F910F9108951C861B8668
:100D00001A86198618861F82E0CF90E080E0089549
:100D1000FC01858596850895CF93DF9300D000D0A0
:100D200000D0CDB7DEB7AB011C821D821E82DC0174
:100D3000ED91FC910190F081E02D19821A821B82C5
:100D40009E012F5F3F4FBE016C5F7F4F0995269636
:100D50000FB6F894DEBF0FBECDBFDF91CF910895DF
:100D6000FC0101900020E9F73197AF01481B590BB6
:100D7000BC0181E294E00C94E2008F929F92AF92CA
:100D8000BF920F931F93CF93DF93CDB7DEB7A19799
:100D90000FB6F894DEBF0FBECDBF19A2423008F4E3
:100DA0004AE08E010F5D1F4F842E912CB12CA12C97
:100DB000A50194010E94AA0EE62FB901CA01EA30EA
:100DC000F4F4E05DD801EE938D01232B242B252B29
:100DD00079F790E080E0109719F0CD010E94B006FD
:100DE000A1960FB6F894DEBF0FBECDBFDF91CF91B5
:100DF0001F910F91BF90AF909F908F900895E95CE5
:100E0000E1CF0E94070F1F920F920FB60F9211248D
:100E10002F933F934F935F936F937F938F939F9302
:100E2000AF93BF93EF93FF9381E294E00E94600140
:100E3000FF91EF91BF91AF919F918F917F916F91B2
:100E40005F914F913F912F910F900FBE0F901F9088
:100E500018951F920F920FB60F9211242F938F9314
:100E60009F93EF93FF93E0913104F09132048081DE
:100E7000E0913704F091380482FD1BC0908180918D
:100E80003A048F5F8F7320913B04821741F0E09109
:100E90003A04F0E0EF5DFB4F958F80933A04FF91A9
:100EA000EF919F918F912F910F900FBE0F901F90F8
:100EB00018958081F4CF1F920F920FB60F921124D4
:100EC0002F933F938F939F93AF93BF938091110480
:100ED00090911204A0911304B091140430914E012A
:100EE00023E0230F2D3758F50196A11DB11D209346
:100EF0004E018093110490931204A0931304B093B5
:100F0000140480914F0190915001A0915101B09132
:100F100052010196A11DB11D80934F019093500184
:100F2000A0935101B0935201BF91AF919F918F91C6
:100F30003F912F910F900FBE0F901F90189526E8AC
:100F4000230F0296A11DB11DD2CFE1E2F4E013827E
:100F5000128288EE93E0A0E0B0E084839583A683BC
:100F6000B7838EE291E09183808385EC90E0958752
:100F7000848784EC90E09787868780EC90E0918B63
:100F8000808B81EC90E0938B828B82EC90E0958B50
:100F9000848B86EC90E0978B868B118E128E138E4D
:100FA000148EEEEBF4E08FEF8083128211821486B0
:100FB00013868FEF9FEFDC0187839087A187B2872D
:100FC000EBECF4E01082118212820895789484B5DB
:100FD000826084BD84B5816084BD85B5826085BD35
:100FE00085B5816085BD80916E00816080936E00C3
:100FF00010928100809181008260809381008091B5
:101000008100816080938100809180008160809365
:1010100080008091B10084608093B1008091B00025
:1010200081608093B00080917A00846080937A0020
:1010300080917A00826080937A0080917A0081604A
:1010400080937A0080917A00806880937A00109271
:10105000C100E0913104F091320482E08083E0919C
:101060002D04F0912E041082E0912F04F0913004B1
:101070008FEC808310923904E0913504F0913604AE
:1010800086E08083E0913304F091340480818061B4
:101090008083E0913304F091340480818860808300
:1010A000E0913304F0913404808180688083E09182
:1010B0003304F091340480818F7D80838EE00E9420
:1010C000B7008CE00E94B70080916601811145C095
:1010D00010925801109257018FEF80935B0180931B
:1010E0005C0180935D0180935E0180935F0180933A
:1010F000600181E0809361011092630110926201AE
:1011000010925A011092590180911B0490911C0475
:10111000892B31F485E591E090931C0480931B04A6
:10112000E0915301F0915401309721F085E591E071
:101130009583848385E591E09093540180935301D6
:1011400010926501109264018CE191E09093560138
:101150008093550181E080936601569A84E891E07E
:10116000909358018093570187ED90E0909363012D
:10117000809362018091C1049091C204A091C30444
:10118000B091C404843C29E09207A105B10520F484
:1011900084EC99E0A0E0B0E08093C1049093C20495
:1011A000A093C304B093C404809100018093BE0453
:1011B00010920C0410920B0410920E0410920D0465
:1011C0001092100410920F04C4E8D1E01882198222
:1011D0001A82239644E0C930D407C1F70E94140252
:1011E00068E873E180E090E00E943A0322242394AF
:1011F000312C00E01BEAEEE7F0E09491EAEBF0E03E
:101200008491E6EAF0E02491211142C190E080E06F
:1012100090930A0480930904809182019091830144
:10122000019709F08EC11092810110928001809186
:10123000800190918101009709F488C10197D1F450
:10124000E4E8F1E0818580838285818383858283E0
:10125000339622E0E93BF207A9F7EDEFF3E0808156
:1012600081878181828782818387339742E0E53C51
:10127000F407A9F790E490937C0080917A00806451
:1012800080937A0080917A0086FDFCCF809178006F
:1012900060917900762F682F072E000C880B990B30
:1012A0000E945F0D6B017C014B015C01C0927C01CF
:1012B000D0927D01E0927E01F0927F01AC019B0112
:1012C0000E94810E882309F450C18CE391E00E94B2
:1012D000B00688E491E00E94B0068090780190907A
:1012E0007901A0907A01B0907B01C0907C01D090F0
:1012F0007D01E0907E01F0907F0120E030E040E051
:101300005FE3C501B4010E94140EA70196010E947B
:101310000F0E181654F020E030E048EC51E4C701FD
:10132000B6010E94B00C87FFB4C110927C011092EC
:101330007D0110927E0110927F01C0907C01D090BF
:101340007D01E0907E01F0907F01209102013091BB
:1013500003014091040150910501C701B6010E94AB
:101360000F0E181644F4C0920201D0920301E092CD
:101370000401F092050120E030E04CE052E4C701A6
:10138000B6010E940F0E18160CF0F0C140907401C7
:10139000509075016090760170907701A3019201E1
:1013A000C701B6010E94430C4B015C01C09078015B
:1013B000D0907901E0907A01F0907B01A301920135
:1013C000C701B6010E94430C2B013C01AC019B01FB
:1013D000C501B4010E940F0E18160CF0C7C120E021
:1013E00030E0A901C301B2010E940F0E18160CF0E3
:1013F000BDC12091700130917101409172015091F5
:101400007301C501B4010E94440C20E030E040E0CB
:101410005FE30E94140E60937001709371018093DA
:10142000720190937301A70196010E94B50C20E010
:1014300030E04FE753E40E94140E0E94270D6093A2
:101440000001709301016093BE040E948C004091E2
:101450000B0460910F0450910D04342F330F330FA0
:10146000330F232F75E5279F020E20E0211D112445
:10147000842F8072942F907447FDB5C19111A2C141
:1014800081111CC1922F9095422F292F30E01AC153
:10149000992349F09330C9F170F5913009F43BC0BC
:1014A000923009F43CC0E22FF0E0EE0FFF1FE85944
:1014B000FF4FA591B4919C91892309F4A7CE809107
:1014C000090490910A04892B99F4E4E8F1E0108270
:1014D000118212823396CE17DF07C9F780918201FD
:1014E00090918301892B41F53092830120928201F2
:1014F00081E090E08DCE9730A9F09830C9F094301B
:1015000091F6909180009F7D03C0909180009F771D
:1015100090938000C8CF94B59F7794BDC4CF94B505
:101520009F7DFBCF9091B0009F779093B000BBCF91
:101530009091B0009F7DF9CF1092830110928201AB
:10154000D7CF309281012092800171CEE4EFF3E099
:101550008081828B8181838B8281848B339781E828
:1015600091E08E179F07A1F785CE26013701E894F9
:1015700077F82FEF3FEF4FE75FE7C301B2010E941B
:10158000810E81110DC02FEF3FEF4FE75FE7C301E1
:10159000B2010E94B00C18161CF480E491E097CEC2
:1015A0002FEF3FEF4FE75FE4C701B6010E940F0E38
:1015B00018161CF484E491E08ACE2FEF3FEF4FE73A
:1015C0005FECC701B6010E94B00C87FDF3CF20E0AD
:1015D00030E0A901C701B6010E94B00C87FF0BC023
:1015E0006DE281E294E00E94820146015701B7FA60
:1015F000B094B7F8B0942AE037ED43EA5BE3C50155
:10160000B4010E94440C4B015C010E942E0D6B0141
:101610007C010E945D0D9B01AC01C501B4010E94DB
:10162000430C4B015C014AE0C701B6010E94BD06B4
:101630006EE281E294E00E94820120E030E040E22C
:1016400051E4C501B4010E94140E4B015C010E94DB
:101650002E0D6B01F12CE12C4AE0C701B6010E946E
:10166000BD06C701B6010E945D0D9B01AC01C5011D
:10167000B4010E94430C20E030E040E251E40E94BB
:10168000140E0E942E0D90E080E04AE00E94BD06FC
:1016900020CEA7019601C501B4010E94440C20E0B0
:1016A00030E040E05FE30E94140E60937801709395
:1016B000790180937A0190937B013FCE45E5420FFB
:1016C00030E02BEA5F3FF9F0552309F4ACC0222348
:1016D00021F0259F020E20E0211D442321F0459F8B
:1016E000040E40E0411D332321F0359F030E30E00E
:1016F000311D11245095559F050E50E0511D1124A8
:10170000250F450F350F6F3FE9F0502F662321F06D
:10171000669F512D09F05F5F552309F488C022238D
:1017200021F0259F020E20E0211D442321F0459F3A
:10173000040E40E0411D332321F0359F030E30E0BD
:10174000311D11242093CB044093CC043093CD045D
:101750008091800190918101009709F46CC00197FC
:1017600009F473C08091BE040E9414026AE070E024
:1017700080E090E00E943A0380916E0190916F01A9
:101780000A9690936F0180936E0180917C019091F5
:101790007D01A0917E01B0917F01809374019093AF
:1017A0007501A0937601B0937701E0E0F0E0EF2BB4
:1017B00009F421CD0E944C01882309F41ACD0E941E
:1017C000000017CD81110AC04AEA349F030E30E0B1
:1017D000311D1124912F931B420F57CE422F40955C
:1017E000322F20E06FCF911110C081110AC07AEA28
:1017F000379F030E30E0311D1124412F431B3B5A0C
:10180000F0CF322F309540E05DCF811106C095E5D5
:10181000920F312F321B292FF6CF8AEA820F35E53E
:10182000321B282FF0CF3FEF4FEF2FEF6CCF30E080
:1018300040E020E087CFE4E8F1E020834183328379
:10184000339681E0E639F807C1F7E9EBF2E020834F
:1018500041833283339685EC92E08E179F07B9F768
:101860002093C5024093C6023093C7022093C8025A
:101870004093C9023093CA022093CB024093CC021A
:101880003093CD026FCF5058BB27AA270E945B0C24
:101890000C94D50D0E94C70D38F00E94CE0D20F09B
:1018A00039F49F3F19F426F40C94C40D0EF4E0951E
:1018B000E7FB0C94BE0DE92F0E94E60D58F3BA1712
:1018C000620773078407950720F079F4A6F50C9456
:1018D000080E0EF4E0950B2EBA2FA02D0B01B901C6
:1018E00090010C01CA01A0011124FF27591B99F096
:1018F000593F50F4503E68F11A16F040A22F232FA2
:10190000342F4427585FF3CF469537952795A795F1
:10191000F0405395C9F77EF41F16BA0B620B730B98
:10192000840BBAF09150A1F0FF0FBB1F661F771F09
:10193000881FC2F70EC0BA0F621F731F841F48F4BE
:10194000879577956795B795F7959E3F08F0B0CF47
:101950009395880F08F09927EE0F9795879508952E
:101960000E949A0D08F481E008950E94C90C0C941D
:10197000D50D0E94CE0D58F00E94C70D40F029F4FD
:101980005F3F29F00C94BE0D51110C94090E0C947C
:10199000C40D0E94E60D68F39923B1F3552391F32A
:1019A000951B550BBB27AA2762177307840738F0CE
:1019B0009F5F5F4F220F331F441FAA1FA9F335D02B
:1019C0000E2E3AF0E0E832D091505040E695001CDF
:1019D000CAF72BD0FE2F29D0660F771F881FBB1F99
:1019E000261737074807AB07B0E809F0BB0B802D77
:1019F000BF01FF2793585F4F3AF09E3F510578F0A3
:101A00000C94BE0D0C94090E5F3FE4F3983ED4F3A2
:101A1000869577956795B795F7959F5FC9F7880F76
:101A2000911D9695879597F90895E1E0660F771FC8
:101A3000881FBB1F621773078407BA0720F0621B59
:101A4000730B840BBA0BEE1F88F7E09508950E9484
:101A50002E0D6894B1110C94090E08950E94EE0D9C
:101A600088F09F5798F0B92F9927B751B0F0E1F05F
:101A7000660F771F881F991F1AF0BA95C9F714C00F
:101A8000B13091F00E94080EB1E008950C94080E58
:101A9000672F782F8827B85F39F0B93FCCF3869548
:101AA00077956795B395D9F73EF4909580957095A5
:101AB00061957F4F8F4F9F4F0895E89409C097FB22
:101AC0003EF490958095709561957F4F8F4F9F4F15
:101AD0009923A9F0F92F96E9BB279395F695879559
:101AE00077956795B795F111F8CFFAF4BB0F11F41C
:101AF00060FF1BC06F5F7F4F8F4F9F4F16C08823C3
:101B000011F096E911C0772321F09EE8872F762FF8
:101B100005C0662371F096E8862F70E060E02AF039
:101B20009A95660F771F881FDAF7880F9695879525
:101B300097F90895990F0008550FAA0BE0E8FEEFFA
:101B400016161706E807F907C0F012161306E40781
:101B5000F50798F0621B730B840B950B39F40A267A
:101B600061F0232B242B252B21F408950A2609F458
:101B7000A140A6958FEF811D811D089597F99F675C
:101B800080E870E060E008959FEF80EC0895002405
:101B90000A941616170618060906089500240A94D2
:101BA00012161306140605060895092E0394000C58
:101BB00011F4882352F0BB0F40F4BF2B11F460FFE7
:101BC00004C06F5F7F4F8F4F9F4F089557FD905810
:101BD000440F551F59F05F3F71F04795880F97FBF1
:101BE000991F61F09F3F79F08795089512161306AB
:101BF0001406551FF2CF4695F1DF08C016161706DA
:101C00001806991FF1CF869571056105089408950E
:101C1000E894BB2766277727CB0197F908950E94A0
:101C20009A0D08F48FEF08950E94270E0C94D50D9D
:101C30000E94C70D38F00E94CE0D20F0952311F0C0
:101C40000C94BE0D0C94C40D11240C94090E0E942A
:101C5000E60D70F3959FC1F3950F50E0551F629FFD
:101C6000F001729FBB27F00DB11D639FAA27F00DF5
:101C7000B11DAA1F649F6627B00DA11D661F829F1C
:101C80002227B00DA11D621F739FB00DA11D621F01
:101C9000839FA00D611D221F749F3327A00D611D1E
:101CA000231F849F600D211D822F762F6A2F112400
:101CB0009F5750409AF0F1F088234AF0EE0FFF1F33
:101CC000BB1F661F771F881F91505040A9F79E3F8A
:101CD000510580F00C94BE0D0C94090E5F3FE4F3A7
:101CE000983ED4F3869577956795B795F795E795E0
:101CF0009F5FC1F7FE2B880F911D9695879597F9E9
:101D000008950E949A0D880B990B0895DB018F931B
:101D10009F930E94D30EBF91AF91A29F800D911D02
:101D2000A39F900DB29F900D1124089597FB072E4D
:101D300016F4009407D077FD09D00E94DE0E07FC50
:101D400005D03EF4909581959F4F089570956195CB
:101D50007F4F0895A1E21A2EAA1BBB1BFD010DC0E7
:101D6000AA1FBB1FEE1FFF1FA217B307E407F5074B
:101D700020F0A21BB30BE40BF50B661F771F881F27
:101D8000991F1A9469F760957095809590959B01BD
:101D9000AC01BD01CF0108950E94F80EB7FF089570
:101DA000821B930B08950E94F80EA59F900DB49F7F
:101DB000900DA49F800D911D11240895AA1BBB1B9B
:101DC00051E107C0AA1FBB1FA617B70710F0A61B3B
:101DD000B70B881F991F5A95A9F780959095BC015C
:101DE000CD010895EE0FFF1F0590F491E02D0994A9
:101DF000A29FB001B39FC001A39F700D811D11244C
:101E0000911DB29F700D811D1124911D089581E0D7
:0C1E100090E0F8940C940C0FF894FFCFB5
:101E1C004000000070413905000000000107010777
:101E2C0001078C0688068506000000004206FE05A8
:101E3C00FC058C068806DF00A90300000000820167
:101E4C00E2000F01CF0140011E0132016E616E00F4
:0C1E5C00696E66006F7666000D0A0000DB
:00000001FF
