:100000000C945D000C9485000C9485000C94850084
:100010000C9485000C9485000C9485000C9485004C
:100020000C9485000C9485000C9485000C9485003C
:100030000C9485000C9485000C9485000C9485002C
:100040000C943C030C9485000C940A030C94E40279
:100050000C9485000C9485000C9485000C9485000C
:100060000C9485000C9485000000000024002700FB
:100070002A0000000000250028002B0004040404CE
:100080000404040402020202020203030303030342
:10009000010204081020408001020408102001021F
:1000A00004081020000000080002010000030407FB
:1000B00000000000000000008B0511241FBECFEFE0
:1000C000D8E0DEBFCDBF11E0A0E0B1E0E2E2F1E1B7
:1000D00002C005900D92A632B107D9F721E0A6E241
:1000E000B1E001C01D92A63DB207E1F710E0CDE5F9
:1000F000D0E004C02197FE010E948908CC35D107C9
:10010000C9F70E9486030C948F080C940000AF92EC
:10011000BF92CF92DF92EF92FF920F931F93CF93F4
:10012000DF936C017B018B01040F151FEB015E0156
:10013000AE18BF08C017D10759F06991D601ED91EB
:10014000FC910190F081E02DC6010995892B79F78A
:10015000C501DF91CF911F910F91FF90EF90DF903C
:10016000CF90BF90AF900895FC01538D448D252F03
:1001700030E0842F90E0821B930B541710F0CF9641
:10018000089501970895FC01918D828D981761F073
:10019000A28DAE0FBF2FB11D5D968C91928D9F5F8A
:1001A0009F73928F90E008958FEF9FEF0895FC0169
:1001B000918D828D981731F0828DE80FF11D858D1C
:1001C00090E008958FEF9FEF0895FC01918D228DAF
:1001D000892F90E0805C9F4F821B91098F73992734
:1001E000089589E391E00E94E50021E0892B09F45C
:1001F00020E0822F089580E090E0892B29F00E9472
:10020000F10081110C9400000895FC01A48DA80F49
:10021000B92FB11DA35ABF4F2C91848D90E0019648
:100220008F739927848FA689B7892C93A089B18968
:100230008C91837080648C93938D848D981306C009
:100240000288F389E02D80818F7D80830895EF926D
:10025000FF920F931F93CF93DF93EC0181E0888F80
:100260009B8D8C8D98131AC0E889F989808185FF50
:1002700015C09FB7F894EE89FF896083E889F989F2
:1002800080818370806480839FBF81E090E0DF91F4
:10029000CF911F910F91FF90EF900895F62E0B8D47
:1002A00010E00F5F1F4F0F731127E02E8C8D8E1102
:1002B0000CC00FB607FCFACFE889F989808185FF69
:1002C000F5CFCE010E940501F1CFEB8DEC0FFD2F94
:1002D000F11DE35AFF4FF0829FB7F8940B8FEA8924
:1002E000FB8980818062CFCFCF93DF93EC01888D33
:1002F0008823B9F0AA89BB89E889F9898C9185FDA1
:1003000003C0808186FD0DC00FB607FCF7CF8C912E
:1003100085FFF2CF808185FFEDCFCE010E940501E0
:10032000E9CFDF91CF91089590E0FC01EC55FF4FAC
:100330002491FC01E057FF4F3491FC01E458FF4F3A
:10034000E491EE23C9F0222339F0233001F1A8F41F
:10035000213019F1223029F1F0E0EE0FFF1FEE58A5
:10036000FF4FA591B4918FB7F894EC91611126C01D
:1003700030953E233C938FBF08952730A9F0283055
:10038000C9F0243049F7809180008F7D03C08091AF
:1003900080008F7780938000DFCF84B58F7784BD16
:1003A000DBCF84B58F7DFBCF8091B0008F778093BA
:1003B000B000D2CF8091B0008F7DF9CF3E2BDACF45
:1003C000CF93DF9390E0FC01E057FF4F24918458D6
:1003D0009F4FFC0184918823D1F090E0880F991FF2
:1003E000FC01E859FF4FA591B491FC01EE58FF4F75
:1003F000C591D49161110EC09FB7F8948C91E22FF2
:10040000E0958E238C932881E223E8839FBFDF91C0
:10041000CF9108958FB7F894EC91E22BEC938FBFB6
:10042000F6CF1F93CF93DF93182FEB0161E00E946B
:10043000E001209739F460E0812FDF91CF911F9187
:100440000C949401CF3FD10511F461E0F5CFE12F79
:10045000F0E0EC55FF4FE491E33031F140F4E1304E
:10046000B1F0E230E1F0C038D1057CF7E4CFE730FD
:1004700029F1E83059F1E430B1F7809180008062D1
:1004800080938000D0938B00C0938A0004C084B511
:10049000806884BDC7BDDF91CF911F91089584B559
:1004A000806284BDC8BDF7CF809180008068809352
:1004B0008000D0938900C0938800EDCF8091B00078
:1004C00080688093B000C093B300E5CF8091B00006
:1004D00080628093B000C093B400DDCF3FB7F89442
:1004E00080912B0190912C01A0912D01B0912E01B2
:1004F00026B5A89B05C02F3F19F00196A11DB11D7F
:100500003FBFBA2FA92F982F8827BC01CD01620FBA
:10051000711D811D911D42E0660F771F881F991F75
:100520004A95D1F70895FC0101900020E9F7319731
:10053000AF01481B590BBC0189E391E00C94870083
:100540008F929F92AF92BF920F931F93CF93DF939F
:10055000CDB7DEB7A1970FB6F894DEBF0FBECDBF03
:1005600019A2423008F44AE08E010F5D1F4F842E1D
:10057000912CB12CA12CA50194010E948E06E62F8E
:10058000B901CA01EA30F4F4E05DD801EE938D01BF
:10059000232B242B252B79F790E080E0109719F07E
:1005A000CD010E949302A1960FB6F894DEBF0FBE54
:1005B000CDBFDF91CF911F910F91BF90AF909F90D2
:1005C0008F900895E95CE1CF1F920F920FB60F92C2
:1005D00011242F933F934F935F936F937F938F9348
:1005E0009F93AF93BF93EF93FF9389E391E00E94B2
:1005F0000501FF91EF91BF91AF919F918F917F91F5
:100600006F915F914F913F912F910F900FBE0F907F
:100610001F9018951F920F920FB60F9211242F93CF
:100620008F939F93EF93FF93E0914901F0914A01DB
:100630008081E0914F01F091500182FD1BC09081BB
:10064000809152018F5F8F7320915301821741F087
:10065000E0915201F0E0E75CFE4F958F80935201EC
:10066000FF91EF919F918F912F910F900FBE0F905F
:100670001F9018958081F4CF1F920F920FB60F92A2
:1006800011242F933F938F939F93AF93BF938091A8
:10069000270190912801A0912901B0912A01309160
:1006A000260123E0230F2D3758F50196A11DB11D1A
:1006B000209326018093270190932801A09329017C
:1006C000B0932A0180912B0190912C01A0912D01D2
:1006D000B0912E010196A11DB11D80932B01909325
:1006E0002C01A0932D01B0932E01BF91AF919F914A
:1006F0008F913F912F910F900FBE0F901F901895E3
:1007000026E8230F0296A11DB11DD2CFCF93DF9310
:1007100000D000D0CDB7DEB7789484B5826084BDB8
:1007200084B5816084BD85B5826085BD85B58160F5
:1007300085BD80916E00816080936E001092810073
:10074000809181008260809381008091810081602E
:1007500080938100809180008160809380008091EF
:10076000B10084608093B1008091B000816080937B
:10077000B00080917A00846080937A0080917A0042
:10078000826080937A0080917A00816080937A0001
:1007900080917A00806880937A001092C10061E0B5
:1007A0008DE00E94E00160E08EE00E94E00161E0E7
:1007B00088E00E94E00161E089E00E94E00161E0E0
:1007C0008AE00E94E00161E08BE00E94E00110926B
:1007D000300110922F0110923201109231011092CB
:1007E000340110923301E0914901F0914A0182E015
:1007F0008083E0914501F09146011082E09147012C
:10080000F09148018FEC808310925101E0914D01ED
:10081000F0914E0186E08083E0914B01F0914C0114
:10082000808180618083E0914B01F0914C01808157
:1008300088608083E0914B01F0914C018081806859
:100840008083E0914B01F0914C0180818F7D80830A
:1008500010E4412C512C32014A9410937C00809179
:100860007A00806480937A0080917A0086FDFCCFC4
:100870008091780060917900762F682F072E000C08
:10088000880B990B0E9462076B017C014B015C0194
:10089000C0923501D0923601E0923701F0923801D2
:1008A000AC019B010E948408882309F48CC086E176
:1008B00091E00E94930282E291E00E949302C09034
:1008C0003101D0903201E0903301F0903401609119
:1008D0002F017091300189E00E941102B6018AE077
:1008E0000E941102B7018BE00E941102C0903501F5
:1008F000D0903601E0903701F090380120E030E0F0
:1009000040EF51E4C701B6010E94120887FDF4C010
:1009100061E088E00E9494010E9404066B017C0162
:100920000E9404064B015C010E940406A30192018F
:100930000E945C067093300160932F01C501B401E1
:10094000A30192010E945C06709332016093310111
:10095000C701B601A30192010E945C0670933401A5
:10096000609333010E946E026B017C018AE0882E45
:10097000912CA12CB12C0E946E026C197D098E095C
:100980009F09683E734081059105A8F391E0891A9B
:100990009108A108B108A8EECA0EA3E0DA1EE11C76
:1009A000F11C81149104A104B10429F780E090E0C6
:1009B000892B09F452CF0E94F100882309F44DCF0E
:1009C0000E9400004ACFD701C601BF7789839A836E
:1009D000AB83BC832FEF3FEF4FE75FE7BC01CD0157
:1009E0000E94840881110FC02FEF3FEF4FE75FE7B0
:1009F00069817A818B819C810E942C0718161CF4D6
:100A00008AE191E056CF2FEF3FEF4FE75FE4C70158
:100A1000B6010E94120818161CF48EE191E049CF2D
:100A20002FEF3FEF4FE75FECC701B6010E942C07A5
:100A300087FDF3CF20E030E0A901C701B6010E9495
:100A40002C0787FF0BC06DE289E391E00E9427012C
:100A500046015701B7FAB094B7F8B0942AE037EDE1
:100A600043EA5BE3C501B4010E94C0064B015C018F
:100A70000E9431076B017C010E9460079B01AC0161
:100A8000C501B4010E94BF064B015C014AE0C701E9
:100A9000B6010E94A0026EE289E391E00E94270164
:100AA00020E030E040E251E4C501B4010E941708A3
:100AB0004B015C010E9431076B01F12CE12C4AE0F3
:100AC000C701B6010E94A002C701B6010E946007DB
:100AD0009B01AC01C501B4010E94BF0620E030E0DB
:100AE00040E251E40E9417080E94310790E080E044
:100AF0004AE00E94A002DFCE20E030E040EF51E467
:100B0000C701B6010E942C0787FF2CCF60E088E068
:100B10000E94940127CFE9E3F1E01382128288EE6C
:100B200093E0A0E0B0E084839583A683B78388E058
:100B300091E09183808385EC90E09587848784ECB5
:100B400090E09787868780EC90E0918B808B81EC9A
:100B500090E0938B828B82EC90E0958B848B86EC7B
:100B600090E0978B868B118E128E138E148E0895C3
:100B70008F929F92AF92BF92CF92DF92EF92FF92AD
:100B8000CF93DF93EC01688179818A819B81611524
:100B900071058105910521F464E279ED8BE597E01B
:100BA0002DE133EF41E050E00E945C0649015A011B
:100BB0009B01AC01A7EAB1E40E947B066B017C01BA
:100BC000ACEEB4EFA50194010E948906C60ED71EB3
:100BD000E81EF91EF7FE06C081E0C81AD108E10838
:100BE00080E8F80AC882D982EA82FB82C701B6018E
:100BF0009F77DF91CF91FF90EF90DF90CF90BF90E4
:100C0000AF909F908F9008958F929F92AF92BF92D6
:100C1000CF92DF92EF92FF926091000170910101FB
:100C20008091020190910301611571058105910583
:100C300021F464E279ED8BE597E02DE133EF41E0BB
:100C400050E00E945C0649015A019B01AC01A7EAF1
:100C5000B1E40E947B066B017C01ACEEB4EFA50110
:100C600094010E948906C60ED71EE81EF91EF7FEE3
:100C700006C081E0C81AD108E10880E8F80AC092ED
:100C80000001D0920101E0920201F0920301C7013C
:100C9000B6019F77FF90EF90DF90CF90BF90AF901D
:100CA0009F908F900895609300017093010180934D
:100CB0000201909303010895052E97FB1EF4009402
:100CC0000E94730657FD07D00E948E0607FC03D0D2
:100CD0004EF40C94730650954095309521953F4FF6
:100CE0004F4F5F4F089590958095709561957F4F18
:100CF0008F4F9F4F08950E94B006A59F900DB49FFF
:100D0000900DA49F800D911D11240895B7FF0C94A0
:100D10007B060E947B06821B930B0895A1E21A2E8C
:100D2000AA1BBB1BFD010DC0AA1FBB1FEE1FFF1F8F
:100D3000A217B307E407F50720F0A21BB30BE40BDF
:100D4000F50B661F771F881F991F1A9469F7609526
:100D50007095809590959B01AC01BD01CF010895E0
:100D6000A29FB001B39FC001A39F700D811D1124EC
:100D7000911DB29F700D811D1124911D0895505831
:100D8000BB27AA270E94D7060C94D8070E94CA073F
:100D900038F00E94D10720F039F49F3F19F426F46F
:100DA0000C94C7070EF4E095E7FB0C94C107E92FFC
:100DB0000E94E90758F3BA1762077307840795077B
:100DC00020F079F4A6F50C940B080EF4E0950B2EA8
:100DD000BA2FA02D0B01B90190010C01CA01A0018D
:100DE0001124FF27591B99F0593F50F4503E68F1E8
:100DF0001A16F040A22F232F342F4427585FF3CF29
:100E0000469537952795A795F0405395C9F77EF4F9
:100E10001F16BA0B620B730B840BBAF09150A1F042
:100E2000FF0FBB1F661F771F881FC2F70EC0BA0FC8
:100E3000621F731F841F48F4879577956795B79550
:100E4000F7959E3F08F0B0CF9395880F08F099274B
:100E5000EE0F9795879508950E949D0708F481E00D
:100E600008950E94F10788F09F5798F0B92F9927AD
:100E7000B751B0F0E1F0660F771F881F991F1AF085
:100E8000BA95C9F714C0B13091F00E940B08B1E0D7
:100E900008950C940B08672F782F8827B85F39F0D6
:100EA000B93FCCF3869577956795B395D9F73EF41E
:100EB00090958095709561957F4F8F4F9F4F0895C6
:100EC000E89409C097FB3EF49095809570956195E4
:100ED0007F4F8F4F9F4F9923A9F0F92F96E9BB279A
:100EE0009395F695879577956795B795F111F8CF16
:100EF000FAF4BB0F11F460FF1BC06F5F7F4F8F4F81
:100F00009F4F16C0882311F096E911C0772321F076
:100F10009EE8872F762F05C0662371F096E8862F0E
:100F200070E060E02AF09A95660F771F881FDAF765
:100F3000880F9695879597F90895990F0008550F92
:100F4000AA0BE0E8FEEF16161706E807F907C0F04F
:100F500012161306E407F50798F0621B730B840B57
:100F6000950B39F40A2661F0232B242B252B21F431
:100F700008950A2609F4A140A6958FEF811D811DD1
:100F8000089597F99F6780E870E060E008959FEF0B
:100F900080EC089500240A94161617061806090610
:100FA000089500240A9412161306140605060895DF
:100FB000092E0394000C11F4882352F0BB0F40F467
:100FC000BF2B11F460FF04C06F5F7F4F8F4F9F4FA7
:100FD000089557FD9058440F551F59F05F3F71F029
:100FE0004795880F97FB991F61F09F3F79F0879590
:100FF0000895121613061406551FF2CF4695F1DF19
:1010000008C0161617061806991FF1CF86957105A8
:10101000610508940895E894BB2766277727CB01DC
:1010200097F908950E949D0708F48FEF08950E9494
:101030002A080C94D8070E94CA0738F00E94D107EA
:1010400020F0952311F00C94C1070C94C7071124CC
:101050000C940C080E94E90770F3959FC1F3950F5B
:1010600050E0551F629FF001729FBB27F00DB11D2C
:10107000639FAA27F00DB11DAA1F649F6627B00DBC
:10108000A11D661F829F2227B00DA11D621F739FA5
:10109000B00DA11D621F839FA00D611D221F749FB3
:1010A0003327A00D611D231F849F600D211D822FFA
:1010B000762F6A2F11249F5750409AF0F1F0882321
:1010C0004AF0EE0FFF1FBB1F661F771F881F91504E
:1010D0005040A9F79E3F510580F00C94C1070C9435
:1010E0000C085F3FE4F3983ED4F3869577956795B7
:1010F000B795F795E7959F5FC1F7FE2B880F911D78
:101100009695879597F908950E949D07880B990BEE
:101110000895EE0FFF1F0590F491E02D0994F894C7
:02112000FFCFFF
:10112200010000000000000027018700B4007401E4
:10113200E500C300D7006E616E00696E66006F76CF
:0611420066000D0A00002A
:00000001FF
