:100000000C9462000C948A000C948A000C948A0070
:100010000C948A000C948A000C948A000C948A0038
:100020000C948A000C948A000C948A000C948A0028
:100030000C948A000C948A000C948A000C948A0018
:100040000C946D070C948A000C943B070C941507D4
:100050000C948A000C948A000C948A000C948A00F8
:100060000C948A000C948A000000000023002600F3
:10007000290000000008000201000003040700003E
:1000800000000000000000000000250028002B00F8
:1000900000000000240027002A00040404040404D3
:1000A0000404020202020202030303030303010227
:1000B00004081020408001020408102001020408F6
:1000C0001020B70711241FBECFEFD8E0DEBFCDBF91
:1000D00011E0A0E0B1E0E0EAFFE102C005900D927E
:1000E000AC34B107D9F728E0ACE4B1E001C01D920F
:1000F000AD35B207E1F710E0C2E6D0E004C02197C9
:10010000FE010E94B40FC136D107C9F70E94F8075B
:100110000C94CE0F0C940000209106013091070141
:1001200045E058E0249FC001259F900D349F900D1D
:100130001124875E994C849F9001859F300D949F78
:10014000300D1124275E394C3093070120930601AE
:10015000EAE9F7E0230F30E0318320832FEF30E02E
:1001600033832283890F90E0958384830895CF930E
:10017000DF9390E0FC01E255FF4F249186569F4F9C
:10018000FC0184918823C1F090E0880F991FFC0145
:10019000E057FF4FC591D491FC01EA57FF4FA5915D
:1001A000B4919FB7F8948881E22FE0958E238883DD
:1001B0008C91E823EC939FBFDF91CF91089580E964
:1001C00091E00895AF92BF92CF92DF92EF92FF92AB
:1001D0000F931F93CF93DF936C017B018B01040F6F
:1001E000151FEB015E01AE18BF08C017D10759F00B
:1001F0006991D601ED91FC910190F081E02DC6014D
:100200000995892B79F7C501DF91CF911F910F9146
:10021000FF90EF90DF90CF90BF90AF900895FC01DA
:10022000538D448D252F30E0842F90E0821B930B5B
:10023000541710F0CF96089501970895FC01918D01
:10024000828D981761F0A28DAE0FBF2FB11D5D9604
:100250008C91928D9F5F9F73928F90E008958FEFA6
:100260009FEF0895FC01918D828D981731F0828D5A
:10027000E80FF11D858D90E008958FEF9FEF0895B1
:10028000FC01918D228D892F90E0805C9F4F821B15
:1002900091098F739927089580EB97E00E944001A0
:1002A00021E0892B09F420E0822F089580E090E07E
:1002B000892B29F00E944C0181110C9400000895B3
:1002C000FC01A48DA80FB92FB11DA35ABF4F2C91CB
:1002D000848D90E001968F739927848FA689B789C2
:1002E0002C93A089B1898C91837080648C93938DB9
:1002F000848D981306C00288F389E02D80818F7D5C
:1003000080830895EF92FF920F931F93CF93DF9313
:10031000EC0181E0888F9B8D8C8D98131AC0E88941
:10032000F989808185FF15C09FB7F894EE89FF8910
:100330006083E889F98980818370806480839FBFAE
:1003400081E090E0DF91CF911F910F91FF90EF90AE
:100350000895F62E0B8D10E00F5F1F4F0F731127BE
:10036000E02E8C8D8E110CC00FB607FCFACFE889F9
:10037000F989808185FFF5CFCE010E946001F1CF20
:10038000EB8DEC0FFD2FF11DE35AFF4FF0829FB76D
:10039000F8940B8FEA89FB8980818062CFCFCF935D
:1003A000DF93EC01888D8823B9F0AA89BB89E8899D
:1003B000F9898C9185FD03C0808186FD0DC00FB643
:1003C00007FCF7CF8C9185FFF2CF808185FFEDCFC1
:1003D000CE010E946001E9CFDF91CF9108958E5048
:1003E000806480937C0080917A00806480937A009E
:1003F00080917A0086FDFCCF809178009091790001
:1004000008953FB7F89480914F0190915001A091C9
:100410005101B091520126B5A89B05C02F3F19F09C
:100420000196A11DB11D3FBFBA2FA92F982F882774
:10043000BC01CD01620F711D811D911D42E0660F4F
:10044000771F881F991F4A95D1F708954F925F92A1
:100450006F927F929F92AF92BF92CF92DF92EF9274
:10046000FF920F931F93CF93DF9300D01F92CDB7CE
:10047000DEB7F82E8091500890915108A091520853
:10048000B0915308892B8A2B8B2BD9F00E94010243
:100490000091AC071091AD072091AE073091AF07E6
:1004A000601B710B820B930B009150081091510847
:1004B0002091520830915308601771078207930703
:1004C000C8F20E9401026093AC077093AD0780935D
:1004D000AE079093AF07E0915808F0915908309714
:1004E00059F0409154085091550860915608709108
:1004F00057088F2D0995F82E0091AA071091AB0788
:100500004F2C512C712C612C0115110509F45EC082
:10051000D8011C96EC901C9780914E0890914F0842
:100520008436910510F41C961C92D801ED91FC9133
:10053000A280B38019821A821B82FF2089F1F80100
:100540003696D12CC12C2191222319F19280992029
:1005500001F130E050E040E02F5F3F4F4F4F5F4FE1
:10056000C301B2010E94480F9B01AC01892D90E0AC
:10057000B0E0A0E0BC01CD016F5F7F4F8F4F9F4F78
:100580000E94480FA1E0B0E0AC0FBD1FAC0DBD1D37
:100590008C93BFEFCB1ADB0A83E0C816D10499F61F
:1005A000D8011D964D915C911E9712966D917C918C
:1005B0009E012F5F3F4FC801F5010995D8011C9698
:1005C000EC921C9714960D911C919ECF8091A807D8
:1005D0009091A9079C012F5F3F4F3093A90720936B
:1005E000A80749970CF445C08FB7F8942091A0074D
:1005F0003091A1074091A2075091A3078FBFE091CE
:10060000A807F091A90788EE93E0E89FB001E99F61
:10061000700DF89F700D1124072E000C880B990B9C
:10062000C090A407D090A507E090A607F090A70778
:100630002C193D094E095F090E946C0F30934F0839
:1006400020934E081092A9071092A8072FB7F8948C
:100650008091A0079091A107A091A207B091A30754
:100660002FBF8093A4079093A507A093A607B093EC
:10067000A7070F900F900F90DF91CF911F910F91CF
:10068000FF90EF90DF90CF90BF90AF909F907F90C2
:100690006F905F904F9008958F929F92AF92BF920C
:1006A000CF92DF92EF92FF924B015C010E94010218
:1006B0006B017C010E9401026C197D098E099F0962
:1006C000683E734081059105A8F321E0821A9108E4
:1006D000A108B10888EEC80E83E0D81EE11CF11C09
:1006E00081149104A104B10429F7FF90EF90DF90E9
:1006F000CF90BF90AF909F908F9008950F931F93CE
:10070000CF93DF9320914D012F5F322F37703093BD
:100710004D0120FF2BC020E831FD2064347009F02A
:100720002062205FFC01EC01239600E011E064856B
:10073000662329F070E0C8010E94580F6F5F61873F
:10074000322F369F030E30E0311D1124311110C0BD
:100750001682662311F0615061873196EC17FD0710
:1007600031F7DF91CF911F910F91089520E0D4CF01
:1007700031503683EECF4F925F926F927F928F927D
:10078000AF92BF92CF92DF92EF920F931F93CF93CE
:10079000DF933C01EB010E940102F30127853089C0
:1007A000621B730B6A307105B0F3F894E881F9812C
:1007B0007BB170646BB16F7B6BB9C9848E812C2D5A
:1007C000281B822F2E83BF844A805B801C850D8569
:1007D000DE841F5F0F5FD3949F813885AA84EB84EA
:1007E0004081D20120E0C32F522F322F3081442785
:1007F00088943111380F08F43FEF8195889410FDEB
:10080000430F4795889411FD430F4795889412FD37
:10081000430F4795889413FD430F4795889414FD23
:10082000430F4795889415FD430F4795889416FD0F
:10083000430F4795889417FD430F47958894232FBE
:100840001111242F8C0D422F002C7BB900C047FFC3
:100850006BB931812227889400C000C0002C6BB98D
:100860003111390F00C0002C7BB900C046FF6BB9B5
:1008700008F43FEF9195889400C000C0002C6BB93C
:1008800000FD230F00C0002C7BB900C045FF6BB9F1
:100890002795889401FD230F00C000C0002C6BB980
:1008A0002795889400C0002C7BB900C044FF6BB929
:1008B00002FD230F2795889400C000C0002C6BB95F
:1008C00003FD230F00C0002C7BB900C043FF6BB9B0
:1008D0002795889404FD230F00C000C0002C6BB93D
:1008E0002795889400C0002C7BB900C042FF6BB9EB
:1008F00005FD230F2795889400C000C0002C6BB91C
:1009000006FD230F00C0002C7BB900C041FF6BB96E
:100910002795889407FD230F00C000C0002C6BB9F9
:100920002795889400C0002C7BB900C040FF6BB9AC
:10093000432F0111422F9A0D00C000C0002C6BB94B
:1009400000C000C0002C7BB900C047FF6BB93281EA
:100950002227889400C000C0002C6BB931113C0FD5
:1009600000C0002C7BB900C046FF6BB908F43FEF14
:10097000EB0DF11D00C000C0002C6BB9D0FC230FA3
:1009800000C0002C7BB900C045FF6BB92795889447
:10099000D1FC230F00C000C0002C6BB927958894B0
:1009A00000C0002C7BB900C044FF6BB9D2FC230F00
:1009B0002795889400C000C0002C6BB9D3FC230F8E
:1009C00000C0002C7BB900C043FF6BB92795889409
:1009D000D4FC230F00C000C0002C6BB9279588946D
:1009E00000C0002C7BB900C042FF6BB9D5FC230FBF
:1009F0002795889400C000C0002C6BB9D6FC230F4B
:100A000000C0002C7BB900C041FF6BB927958894CA
:100A1000D7FC230F00C000C0002C6BB92795889429
:100A200000C0002C7BB900C040FF6BB9432FD11030
:100A3000422FC19500C000C0002C6BB9CE0D00C084
:100A400000C07BB900C047FF6BB930812227889472
:100A500000C000C0002C6BB93111380F00C0002C51
:100A60007BB900C046FF6BB908F43FEF81958894CD
:100A700000C000C0002C6BB910FD230F00C0002C7B
:100A80007BB900C045FF6BB92795889411FD230FF2
:100A900000C000C0002C6BB92795889400C0002CC2
:100AA0007BB900C044FF6BB912FD230F27958894D2
:100AB00000C000C0002C6BB913FD230F00C0002C38
:100AC0007BB900C043FF6BB92795889414FD230FB1
:100AD00000C000C0002C6BB92795889400C0002C82
:100AE0007BB900C042FF6BB915FD230F2795889491
:100AF00000C000C0002C6BB916FD230F00C0002CF5
:100B00007BB900C041FF6BB92795889417FD230F6F
:100B100000C000C0002C6BB92795889400C0002C41
:100B20007BB900C040FF6BB9432F1111422F8C0DD0
:100B300000C000C0002C6BB9119709F086CE20EEE2
:100B400031E0D2010E948E0FDC01CB01F4E0B695BA
:100B5000A79597958795FA95D1F730E020E0B901F0
:100B6000EAE94E9E040C611D5E9E600D711D11240C
:100B7000650D711D860F971FA11DB11D893E43E0B4
:100B80009407A105B10508F434C0885E9340A1091B
:100B9000B10942E0B695A795979587954A95D1F703
:100BA00047E0849F080E211D949F200D311D1124C4
:100BB000290F311D60914C0170E0860F971F820F45
:100BC000931F4091A0075091A1076091A2077091D7
:100BD000A307292F3327420F531F611D711D409317
:100BE000A0075093A1076093A2077093A307809377
:100BF0004C0178940E940102F301708B6787DF91AA
:100C0000CF911F910F91EF90DF90CF90BF90AF9059
:100C10008F907F906F905F904F900895569A0895AF
:100C20000F931F93CF93DF93CDB7DEB762970FB6C5
:100C3000F894DEBF0FBECDBF8C01F901DC011C961C
:100C40008C917A8369835C834B835E834D8390812F
:100C50009D8791819E8792819F878130F1F4CE019B
:100C600001960E947E0383E0888B1A8A198AD80134
:100C7000ED91FC910484F585E02DBE016F5F7F4FFF
:100C8000C801099562960FB6F894DEBF0FBECDBFBE
:100C9000DF91CF911F910F9108951C861B861A86B4
:100CA000198618861F82DFCF0F931F93CF93DF9390
:100CB000CDB7DEB762970FB6F894DEBF0FBECDBFDB
:100CC0008C01F901DC011C968C917A8369835C8329
:100CD0004B835E834D8390819D8791819E87928116
:100CE0009F878130E9F4CE0101960E947E03188A25
:100CF0001A8A198AD801ED91FC910484F585E02DBA
:100D0000BE016F5F7F4FC801099562960FB6F894D8
:100D1000DEBF0FBECDBFDF91CF911F910F91089520
:100D20001C861B861A86198618861F82E0CF90E0E3
:100D300080E00895FC01858596850895CF93DF9323
:100D400000D000D000D0CDB7DEB7AB011C821D8231
:100D50001E82DC01ED91FC910190F081E02D198261
:100D60001A821B829E012F5F3F4FBE016C5F7F4F37
:100D7000099526960FB6F894DEBF0FBECDBFDF9162
:100D8000CF910895FC0101900020E9F73197AF0160
:100D9000481B590BBC0180EB97E00C94E2008F924A
:100DA0009F92AF92BF920F931F93CF93DF93CDB7D4
:100DB000DEB7A1970FB6F894DEBF0FBECDBF19A264
:100DC000423008F44AE08E010F5D1F4F842E912CB3
:100DD000B12CA12CA50194010E946C0FE62FB90142
:100DE000CA01EA30F4F4E05DD801EE938D01232BC3
:100DF000242B252B79F790E080E0109719F0CD0196
:100E00000E94C206A1960FB6F894DEBF0FBECDBFFA
:100E1000DF91CF911F910F91BF90AF909F908F90D6
:100E20000895E95CE1CF0E94C90F1F920F920FB69F
:100E30000F9211242F933F934F935F936F937F9360
:100E40008F939F93AF93BF93EF93FF9380EB97E0C4
:100E50000E946001FF91EF91BF91AF919F918F919F
:100E60007F916F915F914F913F912F910F900FBEA6
:100E70000F901F9018951F920F920FB60F9211248A
:100E80002F938F939F93EF93FF93E091C007F0917F
:100E9000C1078081E091C607F091C70782FD1BC0A2
:100EA00090818091C9078F5F8F732091CA07821745
:100EB00041F0E091C907F0E0E055F84F958F80933D
:100EC000C907FF91EF919F918F912F910F900FBEC6
:100ED0000F901F9018958081F4CF1F920F920FB63C
:100EE0000F9211242F933F938F939F93AF93BF93B0
:100EF0008091A0079091A107A091A207B091A307AC
:100F000030914E0123E0230F2D3758F50196A11D96
:100F1000B11D20934E018093A0079093A107A09349
:100F2000A207B093A30780914F0190915001A09127
:100F30005101B09152010196A11DB11D80934F0145
:100F400090935001A0935101B0935201BF91AF9182
:100F50009F918F913F912F910F900FBE0F901F90F7
:100F6000189526E8230F0296A11DB11DD2CFE0EB04
:100F7000F7E01382128288EE93E0A0E0B0E0848371
:100F80009583A683B7838EE291E09183808385EC7D
:100F900090E09587848784EC90E09787868780EC43
:100FA00090E0918B808B81EC90E0938B828B82EC34
:100FB00090E0958B848B86EC90E0978B868B118EDE
:100FC000128E138E148EEDE4F8E08FEF8083128280
:100FD0001182148613868FEF9FEFDC018783908741
:100FE000A187B287EAE5F8E01082118212820895A3
:100FF000789484B5826084BD84B5816084BD85B5F4
:10100000826085BD85B5816085BD80916E008160FF
:1010100080936E00109281008091810082608093A5
:1010200081008091810081608093810080918000A7
:101030008160809380008091B10084608093B100D2
:101040008091B00081608093B00080917A008460CC
:1010500080937A0080917A00826080937A008091F8
:101060007A00816080937A0080917A008068809312
:101070007A001092C100E091C007F091C10782E0B0
:101080008083E091BC07F091BD071082E091BE071C
:10109000F091BF078FEC80831092C807E091C407DE
:1010A000F091C50786E08083E091C207F091C30705
:1010B000808180618083E091C207F091C3078081C5
:1010C00088608083E091C207F091C30780818068C7
:1010D0008083E091C207F091C30780818F7D808378
:1010E0008EE00E94B7008CE00E94B70080916601FC
:1010F000811145C010925801109257018FEF8093D3
:101100005B0180935C0180935D0180935E0180931D
:101110005F018093600181E080936101109263011F
:101120001092620110925A01109259018091AA07FF
:101130009091AB07892B31F485E591E09093AB0753
:101140008093AA07E0915301F0915401309721F068
:1011500085E591E09583848385E591E09093540142
:101160008093530110926501109264018CE191E02B
:10117000909356018093550181E080936601569AC1
:1011800086E891E0909358018093570186E092E0C1
:10119000909363018093620180915008909151086F
:1011A000A0915208B0915308843C29E09207A10510
:1011B000B10520F484EC99E0A0E0B0E08093500801
:1011C00090935108A0935208B09353088091000166
:1011D00080934D0810929B0710929A0710929D07DA
:1011E00010929C0710929F0710929E07C6E8D1E0CC
:1011F000188219821A82239637E0C839D307C1F7BB
:101200000E94260268E873E180E090E00E944C03AF
:101210000FEF10E029E1222E312CEEE7F0E094915F
:10122000EAEBF0E08491E6EAF0E02491211166C156
:1012300090E080E0909399078093980780918401D3
:1012400090918501019709F0B5C110928301109228
:1012500082018091820190918301009709F4B1C1CC
:101260000197E1F4E6E8F1E081858083828581835E
:1012700083858283339626E834E02E173F07A1F753
:10128000ECE8F7E080818187818182878281838792
:1012900033978CE894E08E179F07A1F78EE00E94A9
:1012A000EF01BC01990F880B990B0E94210E6B0175
:1012B0007C014B015C01C0927E01D0927F01E092E3
:1012C0008001F092810183E10E94EF01BC01990F3E
:1012D000880B990B0E94210E60937A0170937B0119
:1012E00080937C0190937D01A7019601C701B6010F
:1012F0000E94430F882309F472C18CE391E00E949D
:10130000C20688E491E00E94C206C0907A01D090A3
:101310007B01E0907C01F0907D0120E030E040EA2C
:1013200050E4C701B6010E94720D87FFECC1109313
:101330009B0700939A0710939D0700939C07309298
:101340009F0720929E078090760190907701A09051
:101350007801B0907901C0907E01D0907F01E0903B
:101360008001F090810120E030E040E05FE3C501C2
:10137000B4010E94D60EA70196010E94D10E181644
:1013800054F020E030E048EC51E4C701B6010E947F
:10139000720D87FF1AC210927E0110927F01109287
:1013A000800110928101C0907E01D0907F01E09079
:1013B0008001F09081012091020130910301409160
:1013C000040150910501C701B6010E94D10E181603
:1013D00044F4C0920201D0920301E0920401F09221
:1013E000050120E030E04CE552E4C701B6010E945F
:1013F000D10E18160CF0F2C2409072015090730199
:101400006090740170907501A3019201C701B6014B
:101410000E94050D4B015C01C0907601D0907701D0
:10142000E0907801F0907901A3019201C701B60123
:101430000E94050D2B013C01AC019B01C501B401CB
:101440000E94D10E18160CF0C9C220E030E0A901AC
:10145000C301B2010E94D10E18160CF0BFC2209138
:101460006E0130916F014091700150917101C50181
:10147000B4010E94060D20E030E040E05FE30E94EE
:10148000D60E60936E0170936F01809370019093FC
:101490007101A70196010E94770D20E030E04FE72F
:1014A00053E40E94D60E0E94E90D862F609300013E
:1014B0007093010160934D0850919A07E0919E0747
:1014C00020919C07352F330F330F330F45E5632FE2
:1014D000649F060E60E0611D1124962F752F7074B5
:1014E000652F607257FD29C2711113C2611182C14B
:1014F000392F3095592F932F40E080C1992351F017
:10150000933009F43BC080F5913009F43DC092302E
:1015100009F43EC0E22FF0E0EE0FFF1FE859FF4F45
:10152000A591B4919C91892309F482CE809198076A
:1015300090919907892BA9F4E6E8F1E010821182D5
:1015400012823396CE17DF07C9F7809184019091FC
:101550008501892B51F521E030E0309385012093FE
:10156000840181E090E066CE9730A9F09830C9F010
:10157000943081F6909180009F7D03C0909180000F
:101580009F7790938000C6CF94B59F7794BDC2CFCC
:1015900094B59F7DFBCF9091B0009F779093B00062
:1015A000B9CF9091B0009F7DF9CF10928501109234
:1015B0008401D7CF81E090E09093830180938201F2
:1015C00048CEE3E8F7E08081828B8181838B828142
:1015D000848B339791E0E338F907A9F75FCE2601B2
:1015E0003701E89477F82FEF3FEF4FE75FE7C3014C
:1015F000B2010E94430F81110DC02FEF3FEF4FE763
:101600005FE7C301B2010E94720D18161CF480E45A
:1016100091E075CE2FEF3FEF4FE75FE4C701B601D2
:101620000E94D10E18161CF484E491E068CE2FEFCE
:101630003FEF4FE75FECC701B6010E94720D87FDD7
:10164000F3CF20E030E0A901C701B6010E94720D7E
:1016500087FF0BC06DE280EB97E00E94820146019C
:101660005701B7FAB094B7F8B0942AE037ED43EADF
:101670005BE3C501B4010E94060D4B015C010E94B1
:10168000F00D6B017C010E941F0E9B01AC01C50196
:10169000B4010E94050D4B015C014AE0C701B6018F
:1016A0000E94CF066EE280EB97E00E94820120E06C
:1016B00030E040E251E4C501B4010E94D60E4B0176
:1016C0005C010E94F00D6B01F12CE12C4AE0C70196
:1016D000B6010E94CF06C701B6010E941F0E9B01F2
:1016E000AC01C501B4010E94050D20E030E040E2EC
:1016F00051E40E94D60E0E94F00D90E080E04AE096
:101700000E94CF06FECD20E030E040EA50E4C70161
:10171000B6010E94D10E87FD0FC020E030E040E20C
:1017200051E4C701B6010E94720D87FF05C03092D7
:101730009B0720929A07FFCD20E030E040E251E481
:10174000C701B6010E94D10E87FD19C020E030E02C
:1017500040EA51E4C701B6010E94720D87FF0FC035
:1017600010939B0700939A07EDE4F0E0F0939D0738
:10177000E0939C0710939F0700939E07E4CD20E021
:1017800030E040EA51E4C701B6010E94D10E87FD66
:101790000AC020E030E040EF51E4C701B6010E94EA
:1017A000720D87FD03C00E948C00CDCD10929B0767
:1017B00010929A0710939D0700939C0720E830E051
:1017C00030939F0720939E07BECDA7019601C501C8
:1017D000B4010E94060D20E030E040E05FE30E948B
:1017E000D60E609376017093770180937801909381
:1017F0007901D9CD55E5590F40E09BEA2F3F09F11A
:10180000222309F4BBC0992331F0392F329F030EF4
:1018100030E0311D932F552321F0529F050E50E0EB
:10182000511D442321F0429F040E40E0411D11242C
:101830002095229F020E20E0211D1124920F520FAD
:10184000420FEF3F09F420C020E03E2F332321F068
:10185000339F212D09F02F5F222309F493C0992390
:1018600031F0392F329F030E30E0311D932F552375
:1018700021F0529F050E50E0511D442321F0429F5C
:10188000040E40E0411D112490935A0850935B08C8
:1018900040935C082091820130918301211531052C
:1018A00009F474C02130310509F47AC02091840113
:1018B000309185012130310511F40E94260280917A
:1018C000840190918501892B09F49AC06AE070E047
:1018D00080E090E00E944C0380917E0190917F0116
:1018E000A0918001B0918101809372019093730166
:1018F000A0937401B0937501E0E0F0E0EF2B09F4E0
:101900008CCC0E944C01882309F484CC0E940000F6
:1019100081CC61110CC0432F3AEA439F040E40E092
:10192000411D11243BEA341B5AEA590FE4CD30E043
:10193000592F5095492F90E061CF711111C061115D
:101940000BC0432F3AEA439F040E40E0411D11248F
:101950005BEA541B4B5AEFCF492F409550E04ECFD6
:10196000611106C035E5390F4BEA491B932FF6CFBD
:101970003AEA390F50E0491B932F40CF4FEF5FEF0A
:101980009FEF5FCF40E050E090E07ECFE6E8F1E0EF
:10199000908351834283339621E0E839F207C1F7FF
:1019A000E3E8F4E090835183428333962FE834E0F8
:1019B0002E173F07B9F790938F04509390044093EC
:1019C00091049093920450939304409394049093C1
:1019D0009504509396044093970468CF80918401B6
:1019E00090918501892B09F071CFE6E8F1E0108232
:1019F00011821282339688E991E08E179F07B9F71A
:101A000080914D080E94260261CF5058BB27AA271B
:101A10000E941D0D0C94970E0E94890E38F00E94B2
:101A2000900E20F039F49F3F19F426F40C94860EA2
:101A30000EF4E095E7FB0C94800EE92F0E94A80EAF
:101A400058F3BA17620773078407950720F079F4F3
:101A5000A6F50C94CA0E0EF4E0950B2EBA2FA02D0D
:101A60000B01B90190010C01CA01A0011124FF274B
:101A7000591B99F0593F50F4503E68F11A16F04046
:101A8000A22F232F342F4427585FF3CF4695379545
:101A90002795A795F0405395C9F77EF41F16BA0B0A
:101AA000620B730B840BBAF09150A1F0FF0FBB1FB8
:101AB000661F771F881FC2F70EC0BA0F621F731F01
:101AC000841F48F4879577956795B795F7959E3F5E
:101AD00008F0B0CF9395880F08F09927EE0F9795EF
:101AE000879508950E945C0E08F481E008950E9495
:101AF0008B0D0C94970E0E94900E58F00E94890E48
:101B000040F029F45F3F29F00C94800E51110C94A1
:101B1000CB0E0C94860E0E94A80E68F39923B1F3A5
:101B2000552391F3951B550BBB27AA276217730703
:101B3000840738F09F5F5F4F220F331F441FAA1F97
:101B4000A9F335D00E2E3AF0E0E832D09150504053
:101B5000E695001CCAF72BD0FE2F29D0660F771F01
:101B6000881FBB1F261737074807AB07B0E809F0E7
:101B7000BB0B802DBF01FF2793585F4F3AF09E3F6C
:101B8000510578F00C94800E0C94CB0E5F3FE4F37B
:101B9000983ED4F3869577956795B795F7959F5FAF
:101BA000C9F7880F911D9695879597F90895E1E0FB
:101BB000660F771F881FBB1F621773078407BA075A
:101BC00020F0621B730B840BBA0BEE1F88F7E095B5
:101BD00008950E94F00D6894B1110C94CB0E0895F5
:101BE0000E94B00E88F09F5798F0B92F9927B751EF
:101BF000B0F0E1F0660F771F881F991F1AF0BA95B1
:101C0000C9F714C0B13091F00E94CA0EB1E0089536
:101C10000C94CA0E672F782F8827B85F39F0B93F28
:101C2000CCF3869577956795B395D9F73EF4909563
:101C30008095709561957F4F8F4F9F4F0895E894E1
:101C400009C097FB3EF490958095709561957F4F04
:101C50008F4F9F4F9923A9F0F92F96E9BB279395B2
:101C6000F695879577956795B795F111F8CFFAF4C2
:101C7000BB0F11F460FF1BC06F5F7F4F8F4F9F4FF3
:101C800016C0882311F096E911C0772321F09EE851
:101C9000872F762F05C0662371F096E8862F70E0B7
:101CA00060E02AF09A95660F771F881FDAF7880F91
:101CB0009695879597F90895990F0008550FAA0BE7
:101CC000E0E8FEEF16161706E807F907C0F012164F
:101CD0001306E407F50798F0621B730B840B950B52
:101CE00039F40A2661F0232B242B252B21F40895A7
:101CF0000A2609F4A140A6958FEF811D811D089544
:101D000097F99F6780E870E060E008959FEF80ECAE
:101D1000089500240A941616170618060906089551
:101D200000240A9412161306140605060895092EB7
:101D30000394000C11F4882352F0BB0F40F4BF2B26
:101D400011F460FF04C06F5F7F4F8F4F9F4F089566
:101D500057FD9058440F551F59F05F3F71F047955C
:101D6000880F97FB991F61F09F3F79F08795089541
:101D7000121613061406551FF2CF4695F1DF08C060
:101D8000161617061806991FF1CF8695710561057D
:101D900008940895E894BB2766277727CB0197F925
:101DA00008950E945C0E08F48FEF08950E94E90EDA
:101DB0000C94970E0E94890E38F00E94900E20F02D
:101DC000952311F00C94800E0C94860E11240C9423
:101DD000CB0E0E94A80E70F3959FC1F3950F50E0B3
:101DE000551F629FF001729FBB27F00DB11D639FCD
:101DF000AA27F00DB11DAA1F649F6627B00DA11D73
:101E0000661F829F2227B00DA11D621F739FB00D18
:101E1000A11D621F839FA00D611D221F749F332788
:101E2000A00D611D231F849F600D211D822F762F21
:101E30006A2F11249F5750409AF0F1F088234AF0FE
:101E4000EE0FFF1FBB1F661F771F881F915050406A
:101E5000A9F79E3F510580F00C94800E0C94CB0E98
:101E60005F3FE4F3983ED4F3869577956795B795F1
:101E7000F795E7959F5FC1F7FE2B880F911D96950B
:101E8000879597F908950E945C0E880B990B089529
:101E9000DB018F939F930E94950FBF91AF91A29FFB
:101EA000800D911DA39F900DB29F900D1124089558
:101EB00097FB072E16F4009407D077FD09D00E94F7
:101EC000A00F07FC05D03EF4909581959F4F089593
:101ED000709561957F4F0895A1E21A2EAA1BBB1B36
:101EE000FD010DC0AA1FBB1FEE1FFF1FA217B307E6
:101EF000E407F50720F0A21BB30BE40BF50B661FFC
:101F0000771F881F991F1A9469F7609570958095BF
:101F100090959B01AC01BD01CF0108950E94BA0FBD
:101F2000B7FF0895821B930B08950E94BA0FA59FD7
:101F3000900DB49F900DA49F800D911D11240895C4
:101F4000AA1BBB1B51E107C0AA1FBB1FA617B707DF
:101F500010F0A61BB70B881F991F5A95A9F78095FB
:101F60009095BC01CD010895EE0FFF1F0590F491EF
:101F7000E02D0994A29FB001B39FC001A39F700DF3
:101F8000811D1124911DB29F700D811D1124911D81
:101F9000089581E090E0F8940C94CE0FF894FFCF70
:101FA00040000000704139050000000013071307CE
:101FB00013079E069A0697060000000054061006B6
:101FC0000E069E069A06DF00BB0300000000820199
:101FD000E2000F01CF0140011E0132016E616E006F
:0C1FE000696E66006F7666000D0A000056
:107E0000112484B714BE81FFF0D085E080938100F7
:107E100082E08093C00088E18093C10086E0809377
:107E2000C20080E18093C4008EE0C9D0259A86E02C
:107E300020E33CEF91E0309385002093840096BBD3
:107E4000B09BFECF1D9AA8958150A9F7CC24DD24C4
:107E500088248394B5E0AB2EA1E19A2EF3E0BF2EE7
:107E6000A2D0813461F49FD0082FAFD0023811F036
:107E7000013811F484E001C083E08DD089C08234E0
:107E800011F484E103C0853419F485E0A6D080C0E4
:107E9000853579F488D0E82EFF2485D0082F10E0AE
:107EA000102F00270E291F29000F111F8ED06801E7
:107EB0006FC0863521F484E090D080E0DECF843638
:107EC00009F040C070D06FD0082F6DD080E0C81688
:107ED00080E7D80618F4F601B7BEE895C0E0D1E017
:107EE00062D089930C17E1F7F0E0CF16F0E7DF06D8
:107EF00018F0F601B7BEE89568D007B600FCFDCFD4
:107F0000A601A0E0B1E02C9130E011968C91119780
:107F100090E0982F8827822B932B1296FA010C0160
:107F200087BEE89511244E5F5F4FF1E0A038BF0790
:107F300051F7F601A7BEE89507B600FCFDCF97BE46
:107F4000E89526C08437B1F42ED02DD0F82E2BD052
:107F50003CD0F601EF2C8F010F5F1F4F84911BD097
:107F6000EA94F801C1F70894C11CD11CFA94CF0C13
:107F7000D11C0EC0853739F428D08EE10CD085E9AC
:107F80000AD08FE07ACF813511F488E018D01DD067
:107F900080E101D065CF982F8091C00085FFFCCF94
:107FA0009093C60008958091C00087FFFCCF809118
:107FB000C00084FD01C0A8958091C6000895E0E648
:107FC000F0E098E1908380830895EDDF803219F02E
:107FD00088E0F5DFFFCF84E1DECF1F93182FE3DFCA
:107FE0001150E9F7F2DF1F91089580E0E8DFEE27F6
:047FF000FF270994CA
:027FFE00040479
:0400000300007E007B
:00000001FF
